:020000040040BA
:1000000048D74420811740007D1740007D174000ED
:100010007D1740007D1740007D1740000000000064
:100020000000000000000000000000007D174000FC
:100030007D174000000000007D174000F9124000CD
:100040007D1740007D1740007D1740007D17400060
:100050007D1740007D1740007D1740007D17400050
:100060007D17400000000000B11F40007D174000D8
:10007000000000007D1740007D1740007D17400004
:100080007D174000000000007D1740007D174000F4
:100090007D1740007D1740007D1740007D17400010
:1000A0007D1740007D1740000000000000000000A8
:1000B000000000007D1740007D1740007D174000C4
:1000C0007D1740007D1740007D1740007D174000E0
:1000D000000000007D174000000000007D17400078
:1000E0007D1740007D1740007D1740007D174000C0
:1000F0007D1740007D1740007D1740000000000084
:1001000000000000000000007D1740007D17400047
:100110007D1740000000000000000000000000000B
:100120007D1740007D174000F11F40007D17400003
:100130007D17400000000000000000007D17400017
:1001400010B5054C237833B9044B13B10448AFF311
:1001500000800123237010BD4004402000000000F7
:100160003C2740000C4B43B10C480D4910B5AFF390
:1001700000800C48036823B910BD0A48036833B9EE
:100180007047094B002BF7D0BDE810401847064BCD
:10019000002BF5D0184700BF000000003C274000AE
:1001A000440440203C2740000000000010B5064BEE
:1001B00019688B7F003318BF01234A7B0968034805
:1001C0000078034CA04710BD5C044020840440200C
:1001D000C50C400008B10420704710B50E4B9B7A47
:1001E000033BDBB2012B0DD900220C4B1A700A4CD9
:1001F0000B4B1C600B4B9847A07A022814BF0020C1
:10020000012010BD044B02229A72074A1A60012293
:100210005A7300229A77E7E7600440208404402064
:100220005C044020AD014000801A060010B5094B67
:100230001B681989090441F60930074B98470446A1
:1002400008B9204610BD034B18680E30034B984781
:10025000F7E700BF5C044020590D4000850D4000C9
:1002600008B5044B1B7803B108BD0020024B98472A
:10027000FAE700BF84044020350D400008B5042291
:10028000034B9A72FF22034B1A70034B984708BD29
:100290006004402084044020890C40002DE9F04394
:1002A00095B08A4B98470446012805D0884B98475B
:1002B000204615B0BDE8F083864B1B680122DA7238
:1002C00000251D731D81844B984729464FF48040BB
:1002D000824B984730B97F4B1B6803249C727C4B40
:1002E0009847E5E74FF4D57145F208507B4B9847A6
:1002F000002840F090800022764B1B68DB7A13F0D8
:10030000010F40F0A782002145F20310734B98477C
:100310000028E0D06F4D2E68714B9847000C30815B
:100320002B68DB7A13F0010F34D06E4B984700280E
:10033000D1D02B685A7CC2F3C30002F007026A498D
:1003400051F822104FF47A7202FB01F2674951F81A
:10035000201002FB01F21A609A7B920940F0B381EF
:10036000997D587D1A7D920242EA800242EAA112EA
:10037000187ED97D490041EAE011C2F30B02013237
:1003800001F0070102318A40D97C01F00F018A4057
:10039000920A5A604F4B1B681989090443F20710EF
:1003A0004E4B9847002896D04A4B1B68DA7A12F0D9
:1003B000010F00F099811989090441F23710474B68
:1003C0009847002887D0012300930822002148483D
:1003D000484DA84700283FF47EAF012104A8464BB2
:1003E000984700283FF477AF444B984700283FF4E4
:1003F00072AF9DF8103003F00F03012B00F0BB81AA
:10040000002B00F06D81022B00F0BA81314B1B688C
:1004100010221A7368E1324B9847B0F1FF3F00F0A9
:100420001782C0F30B00B0F5D57F7FF454AF0122E3
:1004300062E710F0804F05D0264B1A68D37A43F05C
:100440000803D372234B1B68DB7A13F0010F3FF4D0
:100450005AAF002145F60230204B984700287FF420
:1004600052AF38E700F0C040B0F1804F27D00021F4
:1004700045F60230194B984700283FF42CAF154B36
:100480001B6801221A814FF4803141F20310134B93
:10049000984700283FF41FAF124B984700283FF4BD
:1004A0001AAF0C4B1A68937BC3F38303013B032BF6
:1004B00026D8DFE813F0EF00F200F500F800054B56
:1004C0001A68D37A43F00803D372D0E7D50140000D
:1004D000610240005C044020370D4000590D40008F
:1004E0007D0D40002D0240008C264000A8264000D3
:1004F00033110800B50D4000F10E4000550F4000CB
:1005000012231373537CC3F3C30003F00703A14901
:1005100051F823104FF47A7303FB01F39E4951F80D
:10052000201003FB01F31360917D507D137D9B022E
:1005300043EA800343EAA113C3F30B0340F6FF71C0
:100540008B420FD0107ED17D490041EAE01101338A
:1005500001F0070102318B40D17C01F00F018B408B
:100560009B0A53601189090443F207108B4B98478B
:1005700000283FF4B0AE8A4B1B681B7B3F2B40F238
:100580009F800021009101234FF400728548864D21
:10059000A84700283FF49FAE0025844E03A8B0472B
:1005A00000283FF498AE0135ADB2322DF6D1039E4E
:1005B00006F002067A4B1B689A7D597D1B7D9B02D3
:1005C00043EA810343EAA213C3F30B0340F6FF722D
:1005D00093420ED1754F04A8B84700283FF47BAE74
:1005E0000135ADB2352DF6D96D4B1A68049B5B0809
:1005F00053606E4F7F2D59D96D4B18786D4B9847CE
:1006000003281DD96A4B18786A4B98470546042879
:1006100054D0694B6949082818BF194643F206109F
:100620005E4B984700283FF456AE654B984710F054
:10063000800F7FF450AE5A4B1B685D73614B984737
:10064000614B9847B6B1A8B1604943F20610534BCD
:10065000984700283FF43FAE594B984710F0800F61
:100660007FF439AE4E4B1B6801229A77584A1A60C4
:10067000544B98470A254FF4007841F21017474E23
:1006800041463846B04700286ED1013D15F0FF05C0
:10069000F6D120E61423137334E72223137331E7D2
:1006A000302313732EE7402313732BE704A8B847B6
:1006B00000283FF410AE0135ADB29BE74549ADE7E8
:1006C000404B9847D6E7D97D987D5A7D120442EA7F
:1006D00000220A43C2F31502013252025A6059E65F
:1006E0002F4B1B6810221A73314B1878314B9847E7
:1006F00003281CD92A4B1B68DA7A12F0010F14D098
:100700001989090441F23710244B984700283FF417
:10071000E2AD022141F20610204B984700283FF439
:10072000DAAD1F4B1B6804225A73264B9847264BA1
:10073000984750B11A4B1B68DA7A12F0010F02D0B9
:100740001B7B102B4AD81F4B9847154B1B68DB7A35
:1007500013F0010F08D04FF4007141F210100F4B4D
:10076000984700283FF4B7AD0D4B1B6800229A72E2
:10077000194B98479CE50A4B1B681A221A73B3E77A
:100780009DF81230DB09064B1B6814BF3022202273
:100790001A73A9E78C2640004C264000590D4000F2
:1007A0005C04402008110800B50D40007D0E40009B
:1007B00084044020B50C40000000B7010002B701DE
:1007C0007D0D4000AD014000BF0C40000001B903A9
:1007D000007519030001B7016102400040252A4657
:1007E000002104A8394B9847012300932A46384931
:1007F0003848394DA84700283FF46DAD012104A8C1
:10080000364B984700283FF466AD354B9847002893
:100810003FF461AD334B984710F0800F7FF45BAD30
:100820009DF8203003F00F030F2B8CD09DF82D3056
:100830009DF82C2053EA02237FF44DAD2A4B9847B4
:100840002A4B1B6801229A771A6852001A607AE7CD
:10085000002251E5002A264F08BF4FF4FC1740F64E
:1008600035054FF00008234EDFF87890414641F2FD
:100870003710B04750B1394644F22950B04728B13B
:10088000C8470028FFF6D5AD013DEFD1174B1B68D7
:100890000222DA7200214FF48040164B984700285C
:1008A0003FF419AD41F26905DFF84480114F0D4E58
:1008B000414644F20150B84700283FF40CADB04720
:1008C0000028FFF6CFAD013DF2D104E591244000B0
:1008D00001FFFF8006110800B50D4000F10E400039
:1008E000550F40007D0D4000370D40005C04402056
:1008F00000801F40590D400008B5054B984708B1CE
:10090000002008BD034B9847034B1B68D87A08BDED
:10091000D5014000610240005C04402008B5054B51
:10092000984708B1002008BD034B9847034B1B684C
:10093000586808BDD5014000610240005C044020B9
:100940002DE9F04782B08A469146264B984780466B
:1009500018B1404602B0BDE8F087234C234E244D29
:10096000244F33681989090441F20D10A84728B1B2
:10097000B84710F4807F17D1013CF2D11E4B984745
:100980004FF00508E5E71B4B98471C4B034033B974
:100990001B4BA3F800901B4BA3F80090D9E7164B14
:1009A00098474FF00508D4E7174B1848B9F1010FE5
:1009B00098BF18460D4B1B68DB7A13F0080F01D166
:1009C0004FEA4A2A012300934B464FF400725146E6
:1009D0000F4CA0470028D6D1074B98474FF0050889
:1009E000B7E700BFD5014000410D03005C04402083
:1009F000590D40007D0D400061024000000058E4A8
:100A000080044020820440201111080012111000BF
:100A1000B50D400010B50C46064B984720B9002292
:100A2000054B1A80052010BD034A13881C1B148037
:100A3000002010BDF10E40008004402010B5044697
:100A4000134B984708B9052010BD84B10022114B03
:100A50001A80114B1B88012B0FD0002143F20C1080
:100A60000E4B984768B10E4B9847002010BD094BBC
:100A70001B88002BEDD0002010BD094B98470020AB
:100A800010BD002143F20C10044B9847EBE700BF68
:100A9000550F40008004402082044020590D400042
:100AA0006102400070B582B00E461546164B98475D
:100AB0000446B8B9154B1648012D98BF1846154B7A
:100AC0001B68DB7A13F0080F08BF7602012300933E
:100AD0002B464FF4007231460F4EB04728B90F4BEA
:100AE00098470524204602B070BD0D4B98470D4B2A
:100AF000034023B90C4B1D800C4B1D80F2E7074BC4
:100B000098470524EEE700BFD50140001891080082
:100B1000199110005C044020B50D400061024000B6
:100B20007D0D4000000058E48004402082044020F5
:100B300010B50C46064B984720B90022054B1A8089
:100B4000052010BD034A13881C1B1480002010BD13
:100B5000B90F40008004402010B50446124B98475E
:100B600008B9052010BD84B10022104B1A80104B2B
:100B70001B88012B0FD0002143F20C100D4B98471E
:100B800068B90D4B9847052010BD084B1B88002BFA
:100B9000EDD0002010BD084B9847002010BD064B3B
:100BA0009847002010BD00BF1D1040008004402069
:100BB00082044020590D40006102400070B44FF0A3
:100BC00080435D689C68D868D9695A6D80261E602C
:100BD0005D609C60D860D9615A6500221A65052263
:100BE0001A6070BC7047000008B501F03F0318435D
:100BF00011F4807F04D011F4006F0ED040F48450C3
:100C000011F4804F18BF40F400604FF080431A6128
:100C10005861184601F480520DE011F4005F14BFD2
:100C200040F4865040F48250EAE713F41B0F0CD1D5
:100C300013F0010F0DD1036C002AF6D013F41F0F2F
:100C4000F6D0104B9847002008BD0E4B9847002067
:100C500008BD11F4005F03D1012008BD012008BDCB
:100C60004FF080431B6C4FF0FF324FF0804103F098
:100C70003003202BF2D00B6C013AF8D1014B98478E
:100C8000002008BDBD0B400010B51220084CA04745
:100C90003A20A0474FF0804372229A60DA61112215
:100CA0005A654FF4E0625A6005221A6010BD00BF19
:100CB000E514400000280CBF0420002070470120EC
:100CC000704700009BB14FF08040436D43F4807348
:100CD00043654900154B994210D81548B0FBF1F314
:100CE00001FB130101B101334BB1013B07E04FF0B0
:100CF0008040436D23F480734365EAE700234FF09F
:100D00008041486820F0FF0048604868DBB2034338
:100D10004B60042A07D0082A0CBFC02200224FF0E3
:100D20008043DA6070478022F9E700BFFF439508EF
:100D30000044950870474FF080435A6822F460528F
:100D40005A6000221A614FF410625A611A46136CFD
:100D500013F0010FFBD0704710B54FF080435A6875
:100D600022F460525A6000241C659C610A460146C8
:100D70002046014B984710BDE90B40004FF08043DF
:100D8000186A704710B4031D14304FF08044226A73
:100D9000110E03F8041C110C03F8031C110A03F8CC
:100DA000021C03F8012C04338342F0D15DF8044B9C
:100DB0007047000070B59DF8104084B34FF4807503
:100DC0004FF0804425654FF080456C6844F4C05472
:100DD0006C6012F0030F27D06C6844F400546C6010
:100DE00000F40044002C14BF4FF480344FF4A024CE
:100DF00010F4803F1FD143EA02454FF08046B561B1
:100E000010F4003F2BD110F4802F2BD110F4002FC1
:100E100018D110F4801F18BF44F4002412E00025FC
:100E20004FF080442565CEE74FF080456C6824F490
:100E300000546C60D4E744F40014C2F308054FF08A
:100E40008046B5610026094D2E60094D2A80094A69
:100E500013800A4601462046074B984770BD44F46C
:100E60002014EFE744F48014ECE700BF8C0440202A
:100E70008604402088044020E90B400008B54FF06C
:100E80008041164A0B6C13421DD113F0020FF9D0AA
:100E90004FF080431B6B0360114A136804331360E7
:100EA000104A1188104A128802FB01F2934212D3B1
:100EB0004FF08041094A0B6C134208D113F0006FC8
:100EC000F9D0012008BD094B9847002008BD074B09
:100ED0009847002008BD012008BD00BF000060C089
:100EE0008C0440208604402088044020BD0B400034
:100EF000F0B589B007460C462022002168460E4B0B
:100F000098470E4E012535620D4B1B8804FB03F4F8
:100F10000C4B0393A30800930B4B019302976A4673
:100F200000213046094B9847F561094A13681C4473
:100F30001460284609B0F0BD9124400000800740AD
:100F40008604402001300400000200406B1640007F
:100F50008C04402070B5124B1B88124A128802FB89
:100F600003F2114B1C684FF080401049104E09E00D
:100F7000104B984701220E4B1A62002070BD13F0EF
:100F8000006F0AD1036C0B42F2D1A242F7D9F56D82
:100F900015F0010FF3D0012070BD012070BD00BF1E
:100FA00086044020880440208C044020000060C05B
:100FB00000800740BD0B4000F0B589B007460C46E5
:100FC0002022002168460E4B98470E4E01253562BF
:100FD0000D4B1B8804FB03F40C4B0393A3080093F5
:100FE00001970B4B02936A4600213046094B984704
:100FF000F561094A13681C441460284609B0F0BD25
:1010000091244000008007408604402011500100D8
:10101000000200406B1640008C04402070B5124B5B
:101020001B88124A128802FB03F2114B1C684FF016
:1010300080401049104E09E0104B984701220E4B9A
:101040001A62002070BD13F0006F0AD1036C0B42CE
:10105000F2D1A242F7D9F56D15F0010FF3D00120BE
:1010600070BD012070BD00BF860440208804402070
:101070008C044020000060C000800740BD0B400091
:10108000064BD3F81411064A0A40C3F81421D3F8CA
:10109000142180B21043C3F8140170470080084047
:1010A0000000FFFF024BD3F8140180B2704700BF6D
:1010B00000800840F0B48CB007460E4601AC114DDC
:1010C0000FCD0FC40FCD0FC495E8070084E80700CB
:1010D00001AA002352F8040BB6FBF0F0B0FBF7F0C6
:1010E000B0F5807F07D901330B2BF3D14FF6FF709A
:1010F0000CB0F0BC70470A2B94BF40EA03204FF6B7
:10110000FF70F5E7E826400070B506460D460C680E
:1011100044B1896820460C4B984704464FF6FF734C
:1011200098420CD0686840B1A968074B98474FF6C1
:10113000FF73984205D044EA0044346000242046FE
:1011400070BD0446FBE700BFB510400070B40A68EC
:101150004B6803F00F038C8A23430C8923438C7A5A
:1011600043EA44238C7D43EA0443CC7D43EA444371
:101170000C7E43EA844300EB4214C4F80032CB688F
:10118000C4F804320B69C4F80C328B7D3BB18C8BF4
:101190004B8B43EA044300EB4214C4F81832856CCD
:1011A0004FF001139340DB431D40CC7F04FA02F65D
:1011B0008C7F944044EA06442C438464446C23406E
:1011C00091F8214004FA02F591F82040944044EA55
:1011D0000544234343640123934091F82240002CAB
:1011E0004FD0046A1C43046291F82440022C4DD075
:1011F000D0F8C050DC432540C0F8C05091F82450CE
:10120000012D49D0856E2C40846691F82540022C32
:1012100046D0D0F8C0501B04DC432540C0F8C05075
:1012200091F82550012D42D0836E1C408466D20077
:10123000C36EFF24944023EA040491F823309340C2
:101240002343C36652B991F82C30012B8B6A23F0EB
:101250007F4308BF43F08073C0F8A03000EB42101A
:10126000D0F8003223F40023C0F80032D0F8002276
:101270008B6B03F400231343C0F80032002070BCD2
:101280007047046A24EA03040462ADE7D0F8C04062
:101290001C43C0F8C040B8E7846E1C438466B4E7C2
:1012A000D0F8C04044EA0343C0F8C030BFE7846EC2
:1012B00023438366BBE70B69934202D24FF6FF706C
:1012C00070470B68CA6000EB4310C0F8082200208A
:1012D0007047012303FA01F141607047012303FACB
:1012E00001F1816070471032012303FA02F203FA20
:1012F00001F10A4342617047024A136801331360E7
:10130000704700BF900440200022064B1A60064B35
:1013100006495960E020064981F823009A600722B7
:101320001A6070479004402010E000E07F32020015
:1013300000ED00E0014B1868704700BF90044020AA
:10134000814202D2091A481E7047081A70470000ED
:1013500010B51048104B98473E2100200F4B98477E
:101360000F4CA0470028FCD00E4B98470E4A0F4B5D
:101370009A620F4CA0470028FCD002200D4B9847E2
:1013800000200D4B98470D4B98470D48024B98474E
:1013900010BD00BF00A3E1114919400061144000D5
:1013A000B5144000C5144000013F0B2000060E405C
:1013B000D5144000C5134000FD1340003D18400007
:1013C00000449508032811D0042812D002280CBF2D
:1013D0004FF480710021084A136B23F440730B43D0
:1013E0001363936E13F0080FFBD070474FF44071F6
:1013F000F1E74FF40071EEE700060E40174A136B59
:1014000023F0700318431063936E13F0080F0AD192
:101410004FF4805311498A6E12F0080F03D1013B3B
:10142000F9D1012070470D4A136B23F0030343F0F9
:1014300002031363936E13F0080F0AD14FF4805325
:1014400006498A6E12F0080F05D1013BF9D101203F
:101450007047002070470020704700BF00060E4014
:10146000A0B90E48036A090289B20D4A1A400D4B11
:101470001343194301620246936E13F0010FFBD030
:10148000064A116A084B0B431362704703490B6A03
:10149000064A1A40064B13430B62704700060E4083
:1014A000FCFFC8FF0100370000003701FCFFC8FE49
:1014B00002003701024B986E00F48030704700BF85
:1014C00000060E404FF00052014B9A62704700BF79
:1014D00000060E40024B986E00F00200704700BFFD
:1014E00000060E403F281ED81F280CD8114B9A69C1
:1014F00001238340934318D0012303FA00F00D4BDE
:1015000018610020704720380A4BD3F808210123C6
:10151000834093430BD0012303FA00F0054BC3F83B
:101520000001002070470120704700207047002014
:10153000704700BF00060E40104B99421BD849006F
:10154000B2FBF1F2043AFF2A13D900230133520807
:10155000FF2A01D9062BF9D9D1B241F0E05112028C
:1015600092B20A431B0403F4E023134303610020F7
:1015700070470023F0E70120704700BF801A060083
:1015800008B54FF0FF328262026A80220260026B6D
:101590000822026020220260042202600A68496870
:1015A000034B9847012814BF0020012008BD00BF4D
:1015B00039154000CB68002B4DD070B483B08C68D7
:1015C000002646600A7C120402F4FE024D682D02D9
:1015D00005F440752A434260C6604D685DB10A78E3
:1015E000012D02DD4E7846EA0222022D04DD8978C3
:1015F00041EA022200E00022C26004E014F8012B5C
:101600004263013B15D0026A0192019A12F4807F75
:1016100025D1019A12F0040FF0D1026A0192019AC9
:1016200012F4807F19D1019A12F0040FE6D1002B39
:10163000F3D1036A0193019B13F4807F13D1019BC3
:1016400013F0040FF5D002230360036A13F0010FB7
:10165000FBD0002004E001207047052000E00520B9
:1016600003B070BC70470520FAE700EB8111CB6D29
:1016700053680B6693684B66136823F07F430B67D0
:101680001369C3F30B034B675369CB67936923F06B
:101690007F43C1F88030D36923F07F43C1F88430A1
:1016A000D3688B6770470000334B4FF080521A6647
:1016B000C3F890205A655A62C3F88020196F21F050
:1016C00080511967596F114359675A604FF0007282
:1016D0001A66C3F890205A655A62C3F88020196FC1
:1016E00011431967596F114359675A604FF080428F
:1016F0001A66C3F890205A655A62C3F88020196FA1
:1017000021F080411967596F114359675A604FF0B2
:1017100000421A66C3F890205A655A62C3F88020C6
:10172000196F21F000411967596F114359675A60C9
:101730004FF080621A66C3F890205A655A62C3F867
:101740008020196F21F080611967596F1143596723
:101750005A604FF000621A66C3F890205A655A62C8
:10176000C3F88020196F21F000611967596F114388
:1017700059675A60704700BF000E0E40FEE7000038
:1017800008B5234B234A9A4210D0234B204A9A4251
:101790000CD2013B9B1A23F00303043313441D496D
:1017A00051F8040B42F8040B9A42F9D11B4B1C4A26
:1017B0009A420AD2013B9B1A23F0030304331344D9
:1017C000002142F8041B9342FBD1164A164B23F02A
:1017D0007F039360EFF3108372B6BFF35F8F002136
:1017E000124A117012490A6842F470020A60BFF38B
:1017F0004F8FBFF36F8F2BB901220C4B1A70BFF3C1
:101800005F8F62B60B4B98470B4B9847FEE700BFC4
:10181000000040203C2740003C04402048B74420C2
:101820004004402000ED00E00000400000004020A7
:1018300088ED00E0412440005D2140003B4B1B6BE4
:1018400003F00303012B1DD083B1022B36D0374B9D
:101850001B6B03F07003702B5FD0344B1A6B344951
:10186000C2F302120B68D3400B607047314B5B69C7
:1018700013F0800F14BF4FF400424FF4FA422C4B88
:101880001A60E4E7294B1B6A13F0807F03D02A4AD1
:10189000274B1A60DBE7294A254B1A60234B1B6A4A
:1018A00003F07003102B05D0202BD0D1224A204BFF
:1018B0001A60CCE7224A1E4B1A60C8E71B4B1B6A12
:1018C00013F0807F16D01C4A194B1A60174B1B6B04
:1018D00003F00303022BBAD1144A916A926A1448A6
:1018E000C1F30A41036801FB0333D2B2B3FBF2F345
:1018F0000360ACE7114A0E4B1A600C4B1B6A03F0F5
:101900007003102B05D0202BE0D10B4A084B1A6036
:10191000DCE70B4A064B1A60D8E7054A1368094909
:10192000A1FB03135B081360704700BF00060E4065
:101930000400402010180E40001BB70000093D00B5
:1019400000127A00ABAAAAAA124B984211D9124BE4
:10195000984213D9114B984214D9114B984215D97A
:10196000104B984294BF4FF004220F4A0F4B1A605D
:1019700070474FF080620D4B1A6070470C4A0B4B5A
:101980001A6070470B4A094B1A6070470A4A074BA6
:101990001A607047FF2C3101FF596202FF869303E2
:1019A000FFB3C404FFE0F50500050004000C0E4081
:1019B0000001000400020004000300040E4B4FF479
:1019C00000321A66C3F890205A655A62C3F8802024
:1019D000196F11431967596F21F4003159675A6023
:1019E000064A4FF400731360536C23F0270343F04F
:1019F00022035364704700BF000E0E4000060E40E5
:101A000070B5754B0A221A70744AAF2111709A6032
:101A10000122DA601E46724D724C31462846A047BC
:101A20000028FAD16C4B0B221A706C4901220A7003
:101A30009960DA601E466A4D6A4C31462846A047D6
:101A40000028FAD1644B80221A70644A0B2111706D
:101A5000B82151709A600222DA601E46604D614CD6
:101A600031462846A0470028FAD15B4B81221A70E4
:101A70005A4A00211170642151709A600222DA6082
:101A80001E46574D574C31462846A0470028FAD1EC
:101A90008222514B1A70544B1B68013B072B00F2FA
:101AA0009680DFE803F0048294889494948E4B4BE4
:101AB00000221A705A70484B484A9A600222DA6033
:101AC0001E46474D474C31462846A0470028FAD1CC
:101AD000414B83221A70414A002111708A215170B2
:101AE0009A600222DA601E463D4D3E4C3146284641
:101AF000A0470028FAD1384B84221A70374A0021B7
:101B00001170062151709A600222DA601E46344D2F
:101B1000344C31462846A0470028FAD12E4B852266
:101B20001A702E4A02211170802050709A60D9607C
:101B30001E462B4D2B4C31462846A0470028FAD193
:101B4000254B86221A70254A022111708020507080
:101B50009A60D9601E46224D224C31462846A04745
:101B60000028FAD11C4B13221A701C4A0021117054
:101B70009A600122DA601E46194D1A4C31462846F9
:101B8000A0470028FAD1144B0F221A70134A3421AF
:101B900011709A600122DA601E46114D114C3146D7
:101BA0002846A0470028FAD170BD0C4B01221A70BC
:101BB00000225A707FE7094B02221A7000225A70E5
:101BC00079E7064B03221A7000225A7073E7034B21
:101BD00000221A705A706EE700B544201CB74420EA
:101BE00000C00140B515400008004020034AD2F86B
:101BF000503143F02003C2F850317047000E0E40C0
:101C000008B53A20054B9847054B4FF08062C3F862
:101C10008421202183F83A135A6008BDE51440005E
:101C200000E100E0234B02221A625A6AD3F89C209A
:101C3000214AC3F8A020214B1A68214BA3FB0213B1
:101C40005B0803EB4303D31A012B29D01BB3022BF0
:101C50002BD0184B4FF4C842C3F8B020194AC3F830
:101C6000B8200022C3F8AC20C3F8B420C3F8BC20CD
:101C7000C3F8C020C3F8C420D3F8902042F001027A
:101C8000C3F89020DA6842F00202DA60DA6942F0C2
:101C90000202DA617047074B0B4AC3F8A420D8E769
:101CA000044B0A4AC3F8A420D3E7024B084AC3F8FE
:101CB000A420CEE700800740640F0E409804402027
:101CC000ABAAAAAA01300422A0044020A09441207B
:101CD000A0244320034AD2F8583143F00F03C2F83E
:101CE00058317047000E0E40124B1A6842F4804281
:101CF0001A605A6942F480425A61D3F8942042F43F
:101D00008042C3F894201A6C42F480421A64D3F8DB
:101D1000B02042F48042C3F8B020D3F8C02042F48F
:101D20008042C3F8C020D3F8D02042F48042C3F8E8
:101D3000D0207047000E0E40124B1A6842F4001279
:101D40001A605A6942F400125A61D3F8942042F49E
:101D50000012C3F894201A6C42F400121A64D3F8EB
:101D6000B02042F40012C3F8B020D3F8C02042F4EF
:101D70000012C3F8C020D3F8D02042F40012C3F8F8
:101D8000D0207047000E0E4000B5ADF5017D4FF438
:101D90000072002168460E4B9847012240F2FF3145
:101DA00000200C4B9847012168460B4B98470020B8
:101DB0000A4B9847049A0A4B1A60059A094B1A6015
:101DC000069A094B1A600DF5017D5DF804FB00BF12
:101DD0009124400041094000150A40003D0A40009E
:101DE00008004020A0B44420A8B44420034AD2F8FC
:101DF000503143F00103C2F850317047000E0E40DD
:101E0000034AD2F8503123F00103C2F85031704731
:101E1000000E0E4008B50F4B98470A200E4B98470E
:101E20000E4B4FF48062C3F88021402183F80A13DF
:101E30001A600B4B98470B4B98470B4B98470B4B33
:101E400098470B4B98470B4B18221A7401225A6083
:101E500008BD00BF011E4000E514400000E100E0A5
:101E6000D51C4000011C4000ED1B4000E91C400057
:101E7000391D400000B5442008B53B4B1B6813F4E6
:101E8000804F09D0394B1B7813B1394B1B7823B9DC
:101E9000374B1B78002B5AD108BD0023334A1370EF
:101EA000334A1370334B9847334B1A68334BA3FBB9
:101EB00002135B0803EB4303D31A012B2BD0E3B1CE
:101EC000022B36D000232E4A13602B4A11680131B1
:101ED00011602C490B602C490B602C4B1B6812685D
:101EE00002339342D8D30123214A13701F4A13703F
:101EF000274B9847274B984708BD1F4B1968264B1F
:101F0000264A99501E4A1168254A99501E4A11685E
:101F1000244A9950D6E7184B1968234B1F4A995009
:101F2000174A11681E4A9950174A11681D4A99505C
:101F3000C8E7114B19681D4B184A9950104A11688F
:101F4000174A9950104A1168164A9950BAE7012267
:101F5000064B1A7000230A4A13600A4A13600C4B9E
:101F600098470C4B984797E7B0B44420940440201E
:101F7000B8B44420011E400098044020ABAAAAAA8D
:101F8000A4B44420ACB44420C0B44420B4B444202D
:101F9000251C4000ED1D4000A0044020FC8F0100E6
:101FA000F48F0100F08F0100A0944120A024432071
:101FB00008B50A4BDA6C0A4B1A601B6813F4001F51
:101FC00004D0084B1B78DBB2012B02D0064B98479C
:101FD00008BD064A136801331360F7E7000E0E4090
:101FE000B0B4442094044020791E4000A4B444209E
:101FF000044BD3F89C3013F0010F02D00122024BA6
:102000001A60704700800740C0B4442070B584B0A7
:102010001F20204B9847204B984740F480501F4B7F
:1020200098471F4B01241C66C3F890405C655C62B6
:10203000C3F880401A6F22F001021A675A6F22F02B
:1020400001025A675C60174E00213046164B9847D4
:10205000164B019300250295154B039301A93046B9
:10206000144B984714490D818C720B234B60FF234E
:102070000B610523CB600D603046104B98472A4614
:10208000294630460E4B9847294630460D4B984717
:1020900004B070BDE5144000A51040008110400060
:1020A000000E0E4000000240DD12400018E4030064
:1020B00000A24A0409114000C4B444204D1140005C
:1020C000E7124000D312400000B585B01B4B0193CE
:1020D0001B4B02931B4B984740F030001A4B98471C
:1020E0001A4B20221A66C3F890205A655A62C3F828
:1020F0008020196F21F020011967596F21F020010C
:1021000059675A6010221A66C3F890205A655A62BD
:10211000C3F88020196F21F010011967596F21F061
:10212000100159675A601420094B984701A90948C2
:10213000094B984705B05DF804FB00BF00A24A04B4
:10214000A0860100A51040008110400000100E4044
:10215000E514400000C00140811540002DE9F04F1A
:1021600083B04FF400428F4B5A6001228E4B1A709D
:10217000BFF35F8F62B68D4B98478D4B98470A200F
:102180008C4CA0470B20A0471020A0478A4B9847B3
:102190008A4B98478A4B98478A4B98471020A0470C
:1021A000894B02221A61C3F8A0205A63874B9847D3
:1021B000874B18601E46854D864C3768A8470146F8
:1021C0003846A0476328F8D90B207A4DA847824C9F
:1021D0004FF480532361C4F8A03063630B20A847F9
:1021E00002232361C4F8A0306363784B9847784B8F
:1021F00018601E46754D774C3768A847014638462B
:10220000A0476328F8D9744B02221A6301221A618D
:10221000C3F8A0205A6304221A61C3F8A0205A63AD
:102220006E4B984700256E4C2846A0470028FBD1EE
:102230006C4B984700206C4B98476C4B98476C4B05
:102240001B68FE2B02D90022694B1A60684B1A6882
:1022500068496948694B9847694B9847694B984763
:102260005A4B98475A4B18601E46584D594C376880
:10227000A84701463846A04741F287339842F6D92D
:1022800042F210724FF4806100205F4B98474F4B31
:1022900098474F4B186001225C4B1A704E4B04223A
:1022A0001A634FF480521A63022203F580631A63A3
:1022B0004FF480690024464F444E464DDFF878A124
:1022C000DFF878810AEB080B2FE03B680193B047F9
:1022D00001460198A8474E4B43F80800C82118460C
:1022E0004C4B984700204C4B984701344B4B1C609B
:1022F0000122464B1A704A4BA3FB04231B093222CE
:1023000002FB1343002B3CD03B680193B0470146CE
:102310000198A847434B1A684FF47A7303FB02F302
:10232000984236D20022404B1A60404B1B689C42B8
:10233000EAD23F4BA3FB04235B0803EB4303E31AFE
:10234000012B11D0002BC0D0022BCBD13B680193C5
:10235000B04701460198A847364B43F80800C8210A
:1023600018462C4B9847BDE73B680193B0470146A0
:102370000198A847CBF80000C8215046254B984744
:10238000B0E742F210729144494600201E4B984734
:10239000BAE702220C4B5A634FF48052A3F58063D4
:1023A0005A63FEE750180E400000402051134000D1
:1023B000A9164000E5144000BD1940000913400073
:1023C0000D204000C920400000140E40351340008D
:1023D00018B544204113400000100E407D0240001B
:1023E0009D024000F90840001D094000891D400081
:1023F000A0B44420C4B4442000000240B7124000FE
:10240000151E4000011A4000A50A4000B8B444203F
:10241000A0044020310B4000590B4000B4B44420CC
:102420001F85EB51A8B44420BCB44420980440203C
:10243000ABAAAAAAA0244320A0944120F88F0100AF
:1024400070B50F4E0F4D761BB61018BF002405D087
:10245000013455F8043B9847A642F9D10A4E0B4D7A
:10246000761B00F059F9B61018BF002406D00134CD
:1024700055F8043B9847A642F9D170BD70BD00BF26
:1024800024274000242740002C2740002427400018
:1024900070B4860746D0541E002A41D0CAB2034603
:1024A00002E014F1FF343BD303F8012B9D07F8D170
:1024B000032C2ED9CDB245EA05250F2C45EA05455A
:1024C00019D903F110022646103E0F2E42F8105C77
:1024D00042F80C5C42F8085C42F8045C02F110021D
:1024E000F2D8A4F1100222F00F0204F00F0410320F
:1024F000032C13440DD91E462246043A032A46F8FB
:10250000045BFAD8221F22F003020432134404F0C1
:1025100003042CB1C9B21C4403F8011B9C42FBD13B
:1025200070BC704714460346C2E700BF024B13B1AC
:10253000024800F005B87047000000004D2540003B
:10254000002301461A46184600F01EB838B50A4C5A
:102550000A4D641BA4100AD004F18043013B05EB33
:102560008305013C55F804399847002CF9D1BDE8A2
:10257000384000F0DBB800BF3C274000382740005F
:10258000704700BF704700BF2DE9F8432C4D064649
:10259000286898460F469146FFF7F2FF294B1C68C2
:1025A000D4F84831002B3ED05A681F2A1CDC02F1B7
:1025B000010E76B103EB82010124C1F88890D3F8B3
:1025C000880194402043022EC3F88801C1F8088195
:1025D00023D00232C3F804E0286843F82270FFF7E2
:1025E000D1FF0020BDE8F883174B0BB34FF4C87040
:1025F000AFF300800346D8B1D4F84821026000212F
:1026000041600A46C4F848014FF0010EC0F8881135
:10261000C0F88C11002EDCD0CCE7D3F88C110C4321
:10262000C3F88C41D5E704F5A673C4F84831BBE77D
:102630002868FFF7A7FF4FF0FF30BDE8F88300BF21
:102640003804402014274000000000000000000073
:102650000A0000000C0000000D0000000F00000048
:10266000140000001A0000001E00000023000000FB
:10267000280000002D00000034000000370000009A
:102680003C00000046000000500000000A0000006E
:1026900064000000E80300001027000000000000B4
:1026A0000000000000000000000000000A00000020
:1026B0000C0000000D0000000F00000014000000DE
:1026C000190000001E000000230000002800000088
:1026D0002D00000032000000370000003C00000028
:1026E0004600000050000000010000000200000051
:1026F000040000000800000010000000200000009E
:102700004000000080000000000100000002000006
:102710000004000010004020F8B500BFF8BC08BC61
:102720009E4670472D25400065014000F8B500BF6A
:0C273000F8BC08BC9E4670474101400008
:10273C000100000000093D00010000000000000045
:10274C0000000000FC02402064034020CC03402029
:10275C00000000000000000000000000000000006D
:10276C00000000000000000000000000000000005D
:10277C00000000000000000000000000000000004D
:10278C00000000000000000000000000000000003D
:10279C00000000000000000000000000000000002D
:1027AC00000000000000000000000000000000001D
:1027BC00000000000000000000000000000000000D
:1027CC0000000000000000000000000000000000FD
:1027DC0000000000000000000000000000000000ED
:1027EC0000000000000000000100000000000000DC
:1027FC000E33CDAB34126DE6ECDE05000B000000A1
:10280C0000000000000000000000000000000000BC
:10281C0000000000000000000000000000000000AC
:10282C00000000000000000000000000000000009C
:10283C00000000000000000000000000000000008C
:0C2B6C00000000000000000024B744201E
:04000005004017811F
:00000001FF
