:020000040040BA
:1000000048D744207D1540007915400079154000FF
:100010007915400079154000791540000000000076
:100020000000000000000000000000007915400002
:100030007915400000000000791540007111400062
:100040007915400079154000791540007915400078
:100050007915400079154000791540007915400068
:100060007915400000000000CD1C400079154000CB
:100070000000000079154000791540007915400016
:100080007915400000000000791540007915400006
:100090007915400079154000791540007915400028
:1000A00079154000791540000000000000000000B4
:1000B00000000000791540007915400079154000D6
:1000C00079154000791540007915400079154000F8
:1000D0000000000079154000000000007915400084
:1000E00079154000791540007915400079154000D8
:1000F0007915400079154000791540000000000096
:100100000000000000000000791540007915400053
:100110007915400000000000000000000000000011
:100120007915400079154000051D40007915400003
:100130007915400000000000000000007915400023
:1001400010B5054C237833B9044B13B10448AFF311
:1001500000800123237010BD4004402000000000F7
:10016000D02340000C4B43B10C480D4910B5AFF300
:1001700000800C48036823B910BD0A48036833B9EE
:100180007047094B002BF7D0BDE810401847064BCD
:10019000002BF5D0184700BF00000000D02340001E
:1001A00044044020D023400000000000891A02F0DF
:1001B000070270B507310824D51891FBF4F101440A
:1001C000082D11F8014C44FA02F412DD102DC2F191
:1001D000080611F8020CC4BFC2F1100211F8031C8A
:1001E00000FA06F0C8BF01FA02F244EA0004C8BFF0
:1001F0001443012098400138204070BD074B084847
:1002000010B41968074C8B7F4A7BA44600330968F9
:10021000007818BF01235DF8044B60475C04402060
:1002200084044020110C4000024B187808B9024B9E
:100230001847704784044020750C400010B5B8B9C9
:100240000C4CA37A033B012B06D80223A077A372A0
:10025000094B2360012363730022084B1A70084B7B
:100260001C60084B9847A07A831E5842584110BD25
:10027000042010BD60044020801A06008404402041
:100280005C044020FD01400038B5084D41F60930BE
:100290002B681989064B09049847044618B1286849
:1002A000044B0E309847204638BD00BF5C04402008
:1002B000950C4000C50C40000422034B9A72FF22AB
:1002C000024B1A70024B18476004402084044020FF
:1002D000D50B40002DE9F04F954B97B0984701287A
:1002E000074605D0934B9847384617B0BDE8F08FC6
:1002F000914C0025914E2368B246D8721D731D8122
:10030000B04729464FF480408D4DA847002800F0A3
:100310000B814FF4D57145F20850A847002800F032
:10032000B582884B9847411C00F0B082C0F30B00A7
:10033000B0F5D57F40F0F8803B462268D27AD207EC
:1003400027D5002B804B40F63506DFF8F89114BF17
:1003500098464FF4FC18002141F23710A8470028B6
:1003600000F09980414644F22950A847002800F047
:100370009280C847002880F28B80420004D5226812
:10038000D37A43F00803D3722368DB7AD80700F1ED
:10039000BD81002145F20310A847002800F0C48069
:1003A000684ED4F80080B0472368000C0396A8F884
:1003B0000800DB7A13F0010F30D0644B9847002817
:1003C00000F0B280D4F800B00823602280210BF145
:1003D0000E09DFF890814846C0475D4BC0F3C3016A
:1003E00000F0070053F820204FF47A734846534337
:1003F000584A52F82120802153437E22CBF8003006
:100400000223C047002800F0898116233022802172
:100410004846C04701304002CBF80400236843F24D
:10042000071019890904A84700287DD02368DA7AC3
:10043000D10740F1AA81198941F237100904A84770
:10044000002871D001260822002143480096334637
:10045000DFF81481C047002866D0314606A83F4B1C
:100460009847002860D03E4B984700285CD0042372
:100470003822402106A8DFF8EC80C047B04200F0E7
:10048000818102D3022800F0F681236810227BE1EB
:10049000013E7FF460AF2368022200214FF48040C8
:1004A000DA72A84700283FD041F26906DFF8988049
:1004B000DFF890B0414644F20150A847002833D0FD
:1004C000D84700282EDA00F0C040B0F1804F04D1A8
:1004D0002268D37A43F00803D372002145F6023034
:1004E000A84708B3236801224FF4803141F203107A
:1004F0001A81A847C0B1154B9847A8B1D4F800801D
:100500000423184E7A2208F10E0A8021B146504683
:10051000B0470138032829D8DFE810F0EC00EE00DE
:10052000F000F200013EC5D1236803279F72D9E68F
:100530003D024000290240005C044020770C40004E
:10054000950C4000BD0C400000801F408902400017
:10055000182340003423400033110800ED0D400003
:100560000D0F4000AD014000F10C4000122388F84F
:100570000C306022082380215046C847734BC0F3DB
:10058000C30100F0070053F820204FF47A7350465F
:1005900053436F4A52F82120802153433E22C8F82A
:1005A00000300C23C84740F6FF730646984210D02F
:1005B00003232F2280215046C847013602300423EE
:1005C0005022802186405046C8478640B60AC8F867
:1005D0000460B8F8081043F207100904A84700287F
:1005E000A2D023681B7B3F2B71D9002101234FF43C
:1005F000007258480091584EB047002894D0DFF858
:1006000080813226C24605A8C04700288CD0013E12
:10061000B6B2002EF7D1059B3E222068802103F060
:1006200002080C230E30C84740F6FF73984269D188
:10063000042606A8D04700283FF476AF013EB6B2A4
:10064000002EF6D1069B362622685B08536006A86A
:10065000D04700283FF468AF0136B6B2802EF6D1FD
:10066000DFF818913D4E99F80000B047032818D9DB
:1006700099F80000B0470428064645D0384B394960
:10068000082818BF194643F20610A84700283FF46F
:100690004BAFD84703063FF547AF23685E73324B35
:1006A0009847324B9847A0B1B8F1000F11D03049AC
:1006B00043F20610A84700283FF436AFD847060695
:1006C0003FF532AF236801229A772A4A1A60264BF7
:1006D00098470B26013E16F0FF063FF425AF4FF476
:1006E000007141F21010A8470028F3D023680022BF
:1006F0009A72F7E514233AE7222338E7302336E7E6
:10070000402334E73226A2E71B49BCE7002145F627
:100710000230A84700287FF43CAE05E70C233E22B8
:1007200080214846C047064603232F2280214846A1
:10073000C0470136023004235022802186404846BB
:10074000C04706FA00F0800A66E600BF18234000A2
:10075000D822400008110800F10C4000010C4000B4
:100760000000B7010002B701FD0140000B0C400082
:100770000001B903007519030001B701840440208A
:10078000910D400023681A221A73414B1878414B8F
:100790009847032817D92368DA7AD20711D519891F
:1007A00041F237100904A84700283FF4BDAE0221EA
:1007B00041F20610A84700283FF4B6AE2368042291
:1007C0005A73354B9847354B9847002845D02368D6
:1007D000DA7AD6073FD51B7B102B3CD90126402265
:1007E00000212F4B06A8DFF8CC80984700963346AF
:1007F00040222C492C48C04700283FF495AE314692
:1008000006A82A4B984700283FF48EAE284B9847FD
:1008100000283FF489AE039B984700063FF584AE5D
:1008200004234FF4BC724FF4007106A8DFF88880EF
:10083000C0470F280FD010234FF488724FF4007177
:1008400006A8C04700287FF46FAED04723681A6817
:100850009E77B2401A60104B98472368DB7AD9071D
:100860007FF544AF4FF4007141F21010A847002803
:100870007FF43CAF58E62F223346402106A8C047FC
:10088000012823680CBF302220227DE7002354E595
:1008900084044020010C4000FD0140000B0C40008E
:1008A0001D21400001FFFF8006110800ED0D4000F2
:1008B0000D0F4000F10C4000AD01400008B5054BA4
:1008C000984728B9044B9847044B1B68D87A08BD51
:1008D000002008BD3D024000290240005C04402089
:1008E00008B5054B984728B9044B9847044B1B683B
:1008F000586808BD002008BD3D02400029024000A4
:100900005C0440202DE9F74F204B0F4614469847D2
:100910000646C0B9DFF898A0DFF89880DFF898B0F5
:10092000D146DAF8003041F20D1019890904D84790
:1009300030B1174DA847C20509D4B8F10108F0D16C
:100940000526144B9847304603B0BDE8F08F124B94
:100950001248012C98BF1846D9F80030DB7A1B07E3
:1009600000D47F02012339464FF400720C4F0093EC
:100970002346B8470028E3D0A8470A4B0340002B82
:10098000DED1094B1C80094B1C80DCE73D02400096
:10099000BD0C400029024000111108001211100086
:1009A000F10C4000000058E4800440208204402004
:1009B0005C044020410D0300950C400010B5064B2F
:1009C0000C469847054B10B91880052010BD1988B2
:1009D0000020091B198010BDED0D4000800440204F
:1009E00010B5114B04469847D8B1104B44B10022C2
:1009F0001A800F4B1B88012B07D10E4B984702E042
:100A00001B88002BF5D0002010BD002143F20C10F4
:100A1000094CA04701460028EFD143F20C10A04733
:100A2000EBE7052010BD00BF0D0F40008004402003
:100A30008204402029024000950C400073B5164BFB
:100A40000E46144698470546B8B9144B4FF4007249
:100A50001348012C98BF1846124B1B68DB7A1B0702
:100A60004FF0010358BF76020093234631460E4EE5
:100A7000B04728B905250D4B9847284602B070BDF0
:100A80000B4B98470B4B0340002BF3D10A4B1C80B8
:100A90000A4B1C80F1E700BF3D024000189108009E
:100AA000199110005C044020F10C40002902400024
:100AB000BD0C4000000058E4800440208204402027
:100AC00010B5064B0C469847054B10B91880052009
:100AD00010BD19880020091B198010BD510E40005F
:100AE0008004402010B50F4B04469847B8B10E4B18
:100AF00044B100221A800D4B0D4C1B88012B06D1EE
:100B0000A04702E01B88002BF5D0002010BD00217B
:100B100043F20C10074B98470028F1D1A04705205D
:100B200010BD00BFB50E400080044020820440206C
:100B300029024000950C40004FF0804370B580269C
:100B40005D689C68D868D9695A6D1E605D609C605C
:100B5000D860D9615A6500221A6505221A6070BDF5
:100B600008B501F03F031843CB0503D50B0514D599
:100B700040F484504B044FF0804348BF40F4006081
:100B80001A61586101F480501A6C68B112F41F0F99
:100B90000DD00F4B9847002008BD8B044CBF40F48C
:100BA000865040F48250E5E712F41B0FF0E7D207BD
:100BB000EAD58B040AD500224FF08041501C0B6C03
:100BC000E7D003F030030132202BF7D1012008BD1C
:100BD000390B400010B51220084CA0473A20A0471E
:100BE0004FF0804372229A60DA6111225A654FF405
:100BF000E0625A6005221A6010BD00BF2513400054
:100C000000280CBF0420002070470120704700001E
:100C10004FF0804013B3436D43F480734365490044
:100C2000124B99421ED81248B0FBF1F301FB13019D
:100C300001B10133013B4FF08041DBB2042A486827
:100C400020F0FF004860486843EA00034B600BD087
:100C5000082A0CBFC0230023CB607047436D23F4E8
:100C60008073DBE70023E6E78023F5E7FF43950881
:100C70000044950870474FF080435A6822F4605250
:100C80005A6000221A614FF410625A611A6CD2073E
:100C9000FCD570474FF0804310B45A68002422F40A
:100CA00060525A600A461C6501469C612046024B10
:100CB0005DF8044B184700BF610B40004FF08043C4
:100CC000186A704710B5031D4FF080441430226A33
:100CD0000433110E03F8052C03F8081C110C03F85B
:100CE000071C110A03F8061C8342F0D110BD000056
:100CF00070B405469DF80C004FF0804408B14FF4E5
:100D0000807020659607606840F4C050606060683D
:100D100014BF40F4005020F4005015F4004F606000
:100D20004FF0804414BF4FF480304FF4A02015F4EE
:100D3000803F10D0C2F3080640F40010A6610026E0
:100D40000F4C26600F4C22800F4A13800A460F4B2F
:100D5000294670BC184743EA0246A661AE0302D595
:100D600040F42010EBE76C0302D540F48010E6E776
:100D70002E03E4D4EC0248BF40F40020DFE700BFBC
:100D80008C0440208604402088044020610B4000F1
:100D900008B511494FF080431A6C0A4203D00F4B3B
:100DA0009847002008BD9207F6D51B6B0C4A0360DC
:100DB0001368043313600B4A11880B4A12884A43A4
:100DC000934207D34FF080420349136C0B42E6D1A4
:100DD0001B01FAD5012008BD000060C0390B40009E
:100DE0008C0440208604402088044020F0B589B05F
:100DF00007460C462022002168460E4B01259847E5
:100E00000D4E0E4B6A46356230461B880021029714
:100E10005C430B4B0393A30800930A4B01930A4BCB
:100E200098470A4AF561284613681C44146009B0C3
:100E3000F0BD00BF1D214000008007408604402017
:100E40000130040000020040751440008C04402072
:100E5000F0B589B007460C462022002168460E4BAB
:100E6000012598470D4E0E4B6A46356230461B8869
:100E700000215C430B4B0393A3088DE888000A4BC9
:100E800002930A4B98470A4AF561284613681C44A6
:100E9000146009B0F0BD00BF1D2140000080074074
:100EA00086044020115001000002004075144000EB
:100EB0008C0440200F4B4FF0804070B51A880E4BC9
:100EC0000E4C1B880E4D53430E4A1168026C224291
:100ED00006D00D4B98470122094B00201A6270BDC5
:100EE0008B4202D9EE6DF60701D41201EED5012036
:100EF00070BD00BF8604402088044020000060C010
:100F0000008007408C044020390B4000004B1847FC
:100F1000B50E4000064A80B2D2F814311B0C1B04F7
:100F2000C2F81431D2F814311843C2F814017047D2
:100F300000800840024BD3F8140180B2704700BF14
:100F400000800840F0B5114D8DB006460F4601AC4B
:100F50000FCD0FC40FCD0FC495E80700002384E820
:100F6000070001AA52F82300B7FBF0F0B0FBF6F03F
:100F7000B0F5807F06D901330B2BF3D14FF6FF700C
:100F80000DB0F0BD40EA0320FAE700BF7423400033
:100F900070B50C6806460D4644B120460C4B896876
:100FA00098474FF6FF73044698420CD0686840B1EA
:100FB000074BA96898474FF6FF73984205D044EA5B
:100FC000004434600024204670BD0446FBE700BFA7
:100FD000450F400091E80C0070B503F00F038C8AB8
:100FE00023430C8923438C7A43EA44238C7D43EAD0
:100FF0000443CC7D43EA44430C7E43EA844300EB44
:101000004214C4F80032CB68C4F804320B69C4F847
:101010000C328B7D1BB1D1F81A30C4F81832CC7F5A
:101020004FF00113856C04FA02F693408C7FDB438A
:1010300094401D4044EA06442C438464446C23409D
:1010400091F8214004FA02F591F82040944044EAD6
:10105000054423434364012391F822409340002C2C
:101060003ED0046A1C43046291F82440022C3BD118
:10107000D0F8C0401C43C0F8C04091F825401B0484
:10108000022C42D1D0F8C0402343C0F8C030D20077
:10109000FF24C36E944023EA040491F82330934064
:1010A0002343C36652B991F82C30012B8B6A23F08D
:1010B0007F4308BF43F08073C0F8A03000EB4210BC
:1010C000D0F8003223F40023C0F800328B6BD0F844
:1010D000002203F400231343C0F80032002070BD47
:1010E000046A24EA0304BEE7D0F8C050DC4325407C
:1010F000C0F8C05091F82450012D03D1846E1C43D8
:101100008466BAE7856E2C40FAE7D0F8C050DC431D
:101110002540C0F8C05091F82550012D03D1846EB0
:1011200023438366B3E7836E1C408466AFE70B6995
:10113000934207D30B68CA6000EB4310C0F8082243
:10114000002070474FF6FF707047012303FA01F14A
:1011500041607047012303FA01F181607047012368
:10116000103203FA01F103FA02F20A4342617047B6
:10117000024A136801331360704700BF9004402097
:101180000022064B0649E0201A60064B59600649CA
:1011900081F823009A6007221A607047900440206B
:1011A0007F32020010E000E000ED00E0014B186823
:1011B000704700BF900440208142A1EB000038BF7F
:1011C00000F1FF307047000070B51048104C114D11
:1011D000A0473E210020104B9847A8470028FCD08C
:1011E0000E4B98470E4D0F4A0F4B9A62A8470028A6
:1011F000FCD002200D4B98470D4B002098470D4B1B
:10120000984723460C48BDE87040184700A3E111F9
:10121000E1164000F5124000AD12400005134000F9
:1012200015134000013F0B2000060E403D12400008
:10123000691240001916400000449508023802283F
:1012400096BF074B002133F81010064B1A6B22F49F
:1012500040720A431A639A6E1207FCD5704700BFAA
:10126000A023400000060E400F4B1A6B22F07002C4
:10127000104341F201021863996E08070CD51A6BEE
:1012800022F0030242F002021A6341F20102996E57
:10129000090705D500207047013AEDD101207047BC
:1012A000013AF4D1FAE700BF00060E400E4A136A75
:1012B00028B10E4919400E4B0B431362704723F4BB
:1012C0005C13090223F0030389B243F45C1343F077
:1012D00001030B431362936EDB07FCD5136A43F0E3
:1012E0009B7343F48033E8E700060E40FCFFC8FE22
:1012F00002003701024B986E00F48030704700BF47
:1013000000060E404FF00052014B9A62704700BF3A
:1013100000060E40024B986E00F00200704700BFBE
:1013200000060E403F2818D81F280D4A4FF0010331
:1013300008D8916903FA00F030EA010300D0106187
:10134000002070472038D2F8081103FA00F030EA84
:101350000103F5D0C2F80001F2E70120704700BF99
:1013600000060E4061B10129037807DD42780229A9
:1013700042EA032302D0827842EA032318467047E8
:101380000B46FBE70E4B994218D849000023B2FBED
:10139000F1F2043AFF2A01D9072B0CD1D1B2120283
:1013A00041F0E0511B0492B203F4E0230A431343DB
:1013B00003610020704701335208EBE701207047BA
:1013C000801A06004FF0FF3208B58262026A80225E
:1013D000074B0260026B0822026020220260042296
:1013E00002600A6849689847431E5842584108BD40
:1013F0008513400073B5CD6804460846002D31D0F2
:101400008E6800216160037C42681B04120203F4B1
:10141000FE0302F4407213436360E160144B4168C1
:101420009847E060236A0193019BDB0503D50525FE
:10143000284602B070BD019B580715D53278013D92
:1014400006F10103626310D1236A0193019BD90560
:10145000EDD4019B5A07F7D502232360236ADB07EB
:10146000FCD5E5E70125E3E733461E46DAE700BF92
:101470006513400000EB8111CB6D53680B669368D8
:101480004B66136823F07F430B671369C3F30B03A9
:101490004B675369CB67936923F07F43C1F8803072
:1014A000D36923F07F43C1F88430D3688B677047DA
:1014B00000F01F024009012300F5001093400A07C5
:1014C00000F207704FEA40201ED54366CA061DD5BC
:1014D000C0F894308A061CD5036511F0C00F1AD0ED
:1014E00003620A0619D5C0F88430026F11F0010FAB
:1014F00014BF1A439A4389070267426F4CBF1343D4
:1015000022EA0303436770470366DFE7C0F89030C1
:10151000E0E74365E1E74362E3E7C0F88030E4E7F2
:1015200038B50221124D1C20124CA8474FF08053B1
:10153000032119206360A8474FF0007302211E2089
:101540006360A8474FF0804302211F206360A847D3
:101550004FF0004302211A206360A8474FF08063D8
:1015600002211B206360A8474FF00063636038BD11
:10157000B1144000000E0E40FEE7000008B51B4A03
:101580001B4B9A4225D11B4B00211B4A934229D366
:101590001A4B1B4A23F07F039360EFF3108372B65C
:1015A000BFF35F8F1748002217490A70026842F4A0
:1015B00070020260BFF34F8FBFF36F8F23B9012317
:1015C0000B70BFF35F8F62B6104B9847104B984774
:1015D000FEE7043A0F498B42D5D252F8040F43F884
:1015E000040BF8E743F8041BD0E700BFD02340000A
:1015F000000040204004402048B744200000400044
:1016000000ED00E088ED00E000004020CD2040002B
:10161000311E40003C0440202B4A2C4B10B5116B6E
:1016200001F00301012917D00CD3022925D0116B39
:1016300001F07001702941D11A680321B2FBF1F267
:101640001A6010BD224949690C064CBF4FF4004195
:101650004FF4FA411960EAE7116AC80101D51D4942
:10166000F8E71D491960116A01F07001102902D0D4
:101670002029F4D0DBE71949ECE7116AC90101D54B
:10168000144919E014491960116A01F07001102918
:1016900011D02029F4D0116B01F003010229C6D129
:1016A000946A1968906AC4F30A44C0B204FB011139
:1016B000B1FBF0F1CEE709491960ECE7116B1A684C
:1016C000C1F30211CA40BBE700060E4004004020EF
:1016D00010180E40001BB70000093D0000127A00F0
:1016E0000E4B98420E4B03D84FF080621A60704741
:1016F0000C4A904201D80C4AF8E70C4A904201D8B3
:101700000B4AF3E70B4A904201D80B4AEEE70B4A2B
:10171000904294BF4FF00422094AE7E7FF2C3101C1
:10172000000C0E40FF59620200010004FF86930383
:1017300000020004FFB3C40400030004FFE0F50549
:101740000005000400F01F024009012300F500100D
:1017500093400A0700F207704FEA40201ED5436607
:10176000CA061DD5C0F894308A061CD5036511F051
:10177000C00F1AD003620A0619D5C0F88430026F70
:1017800011F0010F14BF1A439A4389070267426F91
:101790004CBF134322EA0303436770470366DFE746
:1017A000C0F89030E0E74365E1E74362E3E7C0F863
:1017B0008030E4E708B50121084B112098474FF429
:1017C0000032074B5A604FF40073064A1360536CA3
:1017D00023F0270343F02203536408BD451740005C
:1017E000000E0E4000060E402DE9F0410A225F4D2A
:1017F0005F4C2A70AF225F4FA846227001223E46FE
:10180000AC60EA6041465C48B8470028FAD10B2337
:10181000DFF85881584F2B700123AC602370EB60C8
:1018200041463846B0470028FAD18023DFF83C8192
:10183000514F2B700B23AC602370B82363700223CD
:10184000EB6041463846B0470028FAD1812320702A
:10185000DFF818812B706423474F63700223AC605C
:10186000EB6041463846B0470028FAD182232B70FE
:10187000424B1B68013B072B75D8DFE803F074046B
:10188000747074747472012323700223DFF8DC8097
:10189000394F6070AC60EB6041463846B047002875
:1018A000FAD183232070DFF8C4802B708A23324F53
:1018B00063700223AC60EB6041463846B0470028B5
:1018C000FAD184232070DFF8A4802B7006232A4FDE
:1018D00063700223AC60EB6041463846B047002895
:1018E000FAD185238022DFF884802B700223224FD7
:1018F0002370AC606270EB6041463846B047002808
:10190000FAD186238022DFF864802B7002231A4FDD
:101910002370AC606270EB6041463846B0470028E7
:10192000FAD11323DFF84480134F2B70012320706A
:10193000AC60EB6041463846B0470028FAD10F232F
:10194000AC602B703423237001230B4CEB60074DEC
:1019500029462046B0470028FAD1BDE8F08102238D
:1019600092E7032390E720708FE700BF00B5442083
:101970001CB74420F513400000C00140080040207F
:10198000034AD2F8503143F02003C2F85031704777
:10199000000E0E4008B53A20054B9847054B4FF016
:1019A00080622021C3F8842183F83A135A6008BD6D
:1019B0002513400000E100E01E4B02221A625A6A21
:1019C000D3F89C201C4AC3F8A0201C4A11680322AB
:1019D000B1FBF2F202EB42028A1A012A25D0022A56
:1019E00025D0174AC3F8A4204FF4C842C3F8B0204A
:1019F000144AC3F8B8200022C3F8AC20C3F8B420BE
:101A0000C3F8BC20C3F8C020C3F8C420D3F890208A
:101A100042F00102C3F89020DA6842F00202DA6074
:101A2000DA6942F00202DA617047074ADAE7074AE8
:101A3000D8E700BF00800740640F0E4098044020A4
:101A4000A004402001300422A0944120A02443207F
:101A5000034AD2F8583143F00F03C2F858317047A7
:101A6000000E0E40124B1A6842F480421A605A6906
:101A700042F480425A61D3F8942042F48042C3F881
:101A800094201A6C42F480421A64D3F8B02042F4D5
:101A90008042C3F8B020D3F8C02042F48042C3F89B
:101AA000C020D3F8D02042F48042C3F8D020704741
:101AB000000E0E40124B1A6842F400121A605A6966
:101AC00042F400125A61D3F8942042F40012C3F891
:101AD00094201A6C42F400121A64D3F8B02042F435
:101AE0000012C3F8B020D3F8C02042F40012C3F8AB
:101AF000C020D3F8D02042F40012C3F8D0207047A1
:101B0000000E0E4000B5ADF5017D4FF400720021CE
:101B10000E4B68469847012240F2FF310C4B0020E3
:101B20009847012168460B4B98470B4B002098477C
:101B3000049A0A4B1A60059A094B1A60069A094BD7
:101B40001A600DF5017D5DF804FB00BF1D2140000A
:101B500005094000BD094000E1094000080040209F
:101B6000A0B44420A8B44420034AD2F8503143F032
:101B70000103C2F850317047000E0E40034AD2F8FC
:101B8000503123F00103C2F850317047000E0E406F
:101B900008B50F4B98470F4B0A2098474FF48062C7
:101BA00040210D4BC3F8802183F80A131A600B4BB8
:101BB00098470B4B98470B4B98470B4B98470B4B51
:101BC00098470B4B18221A7401225A6008BD00BFB7
:101BD0007D1B40002513400000E100E0511A400049
:101BE0009519400081194000651A4000B51A40005F
:101BF00000B54420274B70B51B685B0449D52649C6
:101C0000264C0B78002B3AD02378002B37D00023BA
:101C1000234D0B702370234B9847234B03221868E6
:101C20001E68B0FBF2F202EB4202821A1F48012A40
:101C300021D0022A21D01E4AC2F8FC612E68C2F8C7
:101C4000F4610668C2F8F06100222A601D6801355F
:101C50001D60184D2A600260174A12681868931CAC
:101C6000834216D3012323700B70144B9847144BF7
:101C7000BDE870401847134ADEE7134ADCE72378D3
:101C80003BB10123064A0B7000231360094A13601D
:101C9000EBE770BDB0B4442094044020B8B44420B5
:101CA000A4B444207D1B400098044020C0B44420CC
:101CB000A0924120ACB44420B4B44420B9194000EF
:101CC000691B4000A0224320A0B24420084BDA6CDC
:101CD000084B1A601B689B0207D5074B1B78012B2A
:101CE00003D1064A136801331360054B184700BF40
:101CF000000E0E40B0B4442094044020A4B444200C
:101D0000F51B4000044BD3F89C30DB0702D50122C1
:101D1000024B1A60704700BF00800740C0B44420E7
:101D20007FB51B4B1F2098471A4B98471A4B40F41E
:101D300080501A4D98470021194B0126084600246F
:101D40009847184B284600215E60174B9847174B61
:101D500001A928460193164B02940393154B98470B
:101D600015490B2328460C814B60FF238E720B61B3
:101D700005230C60CB60114B98472246214628462C
:101D80000F4B9847214628460E4B984704B070BD2C
:101D900025134000350F4000150F400000000240A1
:101DA00045174000000E0E405511400018E4030096
:101DB00000A24A04910F4000C4B44420D50F400053
:101DC0005F1140004B11400030B5104B85B0104DF5
:101DD0000193104B104C0293104B9847104B40F05E
:101DE0003000984700212520A847202300212420E7
:101DF0006360A8471023142063600A4B984701A929
:101E0000094B0A48984705B030BD00BF00A24A04FC
:101E100045174000A086010000100E40350F40001D
:101E2000150F400025134000C513400000C00140BD
:101E30002DE9F74F7E4B4FF400425A6001227D4B53
:101E40001A70BFF35F8F62B67B4B98477B4B7C4E1B
:101E500098470A207B4FB0470B20B0471020B0476F
:101E6000794B9847794B9847794B9847794B9847E6
:101E70001020B047B146784E0223784DB0463B6102
:101E8000774CC7F8A0307B63A0472860D5F800A046
:101E9000A04701465046B0476328F7D90B20714E42
:101EA000C8474FF480530B203361C6F8A0307363EA
:101EB000C84702233361C6F8A0307363A047286087
:101EC0002E68A04701463046C0476328F8D9654BC5
:101ED0000222DFF8EC911A6301221A61C3F8A020F4
:101EE0005A6304221A61C3F8A0205A635E4B9847D4
:101EF0000020C84706460028FAD15C4B98475C4B47
:101F0000304698475B4B98475B4B1A68FE2A00D9CE
:101F10001E601A6841F287365849594B594898470C
:101F2000594B9847594B9847A0472860D5F80090DF
:101F3000A04701464846C047B042F7D942F2107266
:101F40004FF48061DFF87CA10020D0474FF4806916
:101F5000A0474F4B01222860042100261A709B469F
:101F6000404A11634FF48051116302223A63CDF865
:101F700000A0484B1B689E422CD20323DFF848A1E7
:101F8000B6FBF3F303EB4303F31A012B36D0022B1A
:101F90002B6801933ED0A047019B01461846C047DD
:101FA0003D4BC82118603D48D0473D4B00200136CD
:101FB00098473C4B1E6001238BF800303223B6FB60
:101FC000F3F003FB106028B942F21072009B9144B9
:101FD00049469847D5F800A0A04701465046C0475B
:101FE000314B1A684FF47A73534398421CD302233F
:101FF0004FF480527B631B4B5A63FEE72B680193BF
:10200000A047019B01461846C047284BC8211860CD
:102010002748C9E7A047019B01461846C047254B02
:10202000C82118602448BFE70022244B1A60A0E7AB
:1020300050180E4000004020C911400021154000FA
:102040002513400000140E40B517400081114000D8
:10205000211D4000C91D4000B911400018B54420A1
:10206000AD11400000100E40B9024000BD08400014
:10207000E1084000051B4000A0B44420C4B4442043
:102080002F11400000000240911B4000E917400062
:10209000B8B444209804402098944120A0044020E3
:1020A000E50A4000B4B44420A8B444209824432056
:1020B000A094412098B44420A0244320BCB44420E0
:1020C000D50240003D0A4000C10A400070B50F4EE5
:1020D0000F4D761BB61018BF002405D0013455F8FB
:1020E000043B9847A642F9D10A4E0B4D761B00F0EF
:1020F0005DF9B61018BF002406D0013455F8043B32
:102100009847A642F9D170BD70BD00BFB82340000A
:10211000B8234000C0234000B823400070B48607B5
:1021200046D0541E002A41D0CAB2034602E014F140
:10213000FF343BD303F8012B9D07F8D1032C2ED994
:10214000CDB245EA05250F2C45EA054519D903F11D
:1021500010022646103E0F2E42F8105C42F80C5C2E
:1021600042F8085C42F8045C02F11002F2D8A4F1D3
:10217000100222F00F0204F00F041032032C13445B
:102180000DD91E462246043A032A46F8045BFAD8C3
:10219000221F22F003020432134404F003042CB182
:1021A000C9B21C4403F8011B9C42FBD170BC7047B0
:1021B00014460346C2E700BF024B13B1024800F0C9
:1021C00005B8704700000000D921400000230146F7
:1021D0001A46184600F01EB838B50A4C0A4D641B62
:1021E000A4100AD004F18043013B05EB8305013CB8
:1021F00055F804399847002CF9D1BDE8384000F073
:10220000DFB800BFD0234000CC234000704700BFA0
:10221000704700BF2DE9F8432C4D064628689846C4
:102220000F469146FFF7F2FF294B1C68D4F848315E
:10223000002B3ED05A681F2A1CDC02F1010E76B139
:1022400003EB82010124C1F88890D3F888019440FF
:102250002043022EC3F88801C1F8088123D002323E
:10226000C3F804E0286843F82270FFF7D1FF00208C
:10227000BDE8F883174B0BB34FF4C870AFF3008081
:102280000346D8B1D4F848210260002141600A46D3
:10229000C4F848014FF0010EC0F88811C0F88C1145
:1022A000002EDCD0CCE7D3F88C110C43C3F88C4162
:1022B000D5E704F5A673C4F84831BBE72868FFF7F3
:1022C000A7FF4FF0FF30BDE8F88300BF380440207F
:1022D000A823400000000000000000000A000000E9
:1022E0000C0000000D0000000F00000014000000B2
:1022F0001A0000001E00000023000000280000005B
:102300002D00000034000000370000003C000000F9
:1023100046000000500000000A00000064000000B9
:10232000E80300001027000000000000000000008B
:1023300000000000000000000A0000000C00000087
:102340000D0000000F000000140000001900000044
:102350001E00000023000000280000002D000000E7
:1023600032000000370000003C0000004600000082
:102370005000000001000000020000000400000006
:1023800008000000100000002000000040000000D5
:1023900080000000000100000002000000040000B6
:1023A000000100030002000010004020F8B500BF4B
:1023B000F8BC08BC9E467047B9214000650140004A
:1023C000F8B500BFF8BC08BC9E467047410140000C
:1023D0000100000000093D000100000000000000B5
:1023E00000000000FC02402064034020CC03402099
:1023F00000000000000000000000000000000000DD
:1024000000000000000000000000000000000000CC
:1024100000000000000000000000000000000000BC
:1024200000000000000000000000000000000000AC
:10243000000000000000000000000000000000009C
:10244000000000000000000000000000000000008C
:10245000000000000000000000000000000000007C
:10246000000000000000000000000000000000006C
:10247000000000000000000000000000000000005C
:10248000000000000000000001000000000000004B
:102490000E33CDAB34126DE6ECDE05000B00000010
:1024A000000000000000000000000000000000002C
:1024B000000000000000000000000000000000001C
:1024C000000000000000000000000000000000000C
:1024D00000000000000000000000000000000000FC
:0C280000000000000000000024B744208D
:040000050040157D25
:00000001FF
