:020000040040BA
:1000000018A9452095154000911540009115400014
:10001000911540009115400091154000000000002E
:1000200000000000000000000000000091154000EA
:10003000911540000000000091154000791140002A
:100040009115400091154000911540009115400018
:100050009115400091154000911540009115400008
:100060009115400000000000651C40009115400003
:1000700000000000911540009115400091154000CE
:1000800091154000000000009115400091154000BE
:1000900091154000911540009115400091154000C8
:1000A0009115400091154000000000000000000084
:1000B000000000009115400091154000911540008E
:1000C0009115400091154000911540009115400098
:1000D0000000000091154000000000009115400054
:1000E0009115400091154000911540009115400078
:1000F000911540009115400091154000000000004E
:100100000000000000000000911540009115400023
:1001100091154000000000000000000000000000F9
:1001200091154000911540009D1C40009115400024
:1001300091154000000000000000000091154000F3
:1001400010B5054C237833B9044B13B10448AFF311
:1001500000800123237010BD3804402000000000FF
:1001600000234000084B10B51BB108490848AFF305
:1001700000800848036803B910BD074B002BFBD073
:10018000BDE81040184700BF000000003C044020BC
:10019000002340000023400000000000891A02F004
:1001A000070270B507310824D51891FBF4F101441A
:1001B000082D11F8014C44FA02F412DD102DC2F1A1
:1001C000080611F8020CC4BFC2F1100211F8031C9A
:1001D00000FA06F0C8BF01FA02F244EA0004C8BF00
:1001E0001443012098400138204070BD074B084857
:1001F00010B41968074C8B7F4A7BA446003309680A
:10020000007818BF01235DF8044B60475804402074
:100210005E044020150C4000024B187808B9024BD0
:10022000184770475E044020810C400010B5B8B9F3
:100230000C4CA37A033B012B06D80223A077A372B0
:10024000094B2360012363730022084B1A70084B8B
:100250001C60084B9847A07A831E5842584110BD35
:10026000042010BD60044020801A06005E04402077
:1002700058044020ED01400038B5084D41F60930E2
:100280002B681989064B09049847044618B1286859
:10029000044B0E309847204638BD00BF580440201C
:1002A000A10C4000D10C40000422034B9A72FF22A3
:1002B000024B1A70024B1847600440205E04402035
:1002C000D90B40002DE9F04F994B95B09847012884
:1002D000064640F0E182974C0025974F2368B946C7
:1002E000D8721D731D81B84729464FF48040934D45
:1002F000A847002800F0CD824FF4D57145F2085090
:10030000A84750B18E4B9847471C06D0C0F30B004E
:10031000B0F5D57F40F0BD8200E000262368DB7A8F
:10032000DA0749D5002E874F40F63506DFF80CA2D4
:1003300008BF4FF4FC17DFF80882002141F23710A4
:10034000A84788B1394644F22950D04760B1C04728
:10035000002807DA46002FD52268D37A43F0080335
:10036000D37229E0013EE8D12368022200214FF434
:100370008040DA72A847002800F08B8241F26906BB
:100380006F4F704944F20150A847002800F0818265
:10039000B8470028DFF8A8A10BDA00F0C040B0F1A0
:1003A000804F40F05C812268D37A43F00803D37217
:1003B00055E1013EE5D16CE22368DB7ADB0707D427
:1003C000002145F20310A847002800F0628206E0F1
:1003D000002145F60230A8470028F1D159E2584ED5
:1003E0002768B0472368000CB2463881DB7A13F0E7
:1003F000010F45D0544B9847002800F04A824D4BDE
:1004000060228021514FD3F800B008230BF10E0871
:100410004046B8474E4B00F00702C0F3C3008021AE
:1004200053F822204FF47A735A434A4B53F8203042
:10043000404653437E22CBF800300223B84738B100
:100440001623302280214046B8470130400215E093
:100450000C233E2280214046B847064603232F2224
:1004600080214046B84701360230042350228021C3
:1004700086404046B84706FA00F0800ACBF80400F0
:10048000236843F207102B4E19890904A847002856
:1004900000F0FF813368DA7AD20706D42E4B187841
:1004A0002E4B9847032863D87CE0198941F2371016
:1004B000224B09049847002800F0EB81012708220D
:1004C0000021274800973B46DFF8A080C04700285E
:1004D00000F0DF81394604A8224B9847002800F03D
:1004E000D881214B98478046002800F0D281042310
:1004F0003822402104A8DFF854B0D847B8420DD0C4
:100500000FD302280DD12F223B46402104A8D84703
:10051000012823680CBF3022202204E033681A220D
:1005200001E0336810221A73B8F1000FB6D1B0E1C0
:100530002D02400058044020830C4000A10C4000D4
:10054000C90C400000801F40790240009D0140001E
:1005500044224000042240005E044020050C40007C
:1005600033110800010E4000210F4000FD0C400037
:100570002368DA7AD70713D5198941F237100904AD
:10058000A847002800F08581022141F20610964B11
:100590009847002800F07D81944B04221B685A7311
:1005A000934B9847934B984700284AD02368DA7AB0
:1005B000D60702D48E4B984743E01B7B102BF9D90A
:1005C0000126402200218C4B04A88C4F98470096AE
:1005D000334640228A498B48B847002800F05981A9
:1005E000314604A8884B9847002800F05281874B79
:1005F00098470746002800F04C81D047000600F1DC
:10060000488104234FF4BC724FF4007104A8DFF852
:100610000482C0470F2811D010234FF488724FF482
:1006200000710DEB0300C047002840F03281C8473D
:100630006E4B1B681A689E77B2401A60002FB9D1C2
:1006400027E12368DB7AD90740F12A814FF4007152
:1006500041F21010A847002840F0228119E1002142
:1006600045F60230A847002800F0138123680122D4
:100670004FF4803141F203101A815B4B98470028F8
:1006800000F00781624B9847002800F00281574B29
:100690007A22604E80211F680423B04607F10E09BC
:1006A0004846B0470138032803D8DFE800F00406C5
:1006B000080A122306E0142304E0222302E0302378
:1006C00000E040233B736022082380214846DFF886
:1006D00044B1C047504BC0F3C30100F0070053F8CA
:1006E00020204FF47A73484653434C4A52F8212055
:1006F000802153433E223B600C23C04740F6FF73EA
:100700000646984210D003232F2280214846D8471E
:100710000136023004235022802186404846D847C3
:1007200006FA00F0860A7E60398943F20710090450
:10073000A847002800F0AD8023681B7B3F2B40F2C8
:100740009980002101234FF40072354800912B4E0F
:10075000B047002800F09D803226324F03A8DFF812
:10076000C490B847002800F09480013EB6B2002E35
:10077000F4D120680C233E2280210E30039FC04715
:1007800040F6FF7307F002079842FFB20ED104262D
:1007900004A8C84700287CD0013EB6B2002EF7D18D
:1007A000049B362622685B08536000E0322604A8CA
:1007B000C84700286DD00136B6B2802EF7D1DFF8D9
:1007C0007480194E98F80000B047032840D998F873
:1007D0000000B047042806462ED01449144B0828C0
:1007E00008BF194629E000BFA10C40005804402072
:1007F000ED0140000F0C40007D204000FD0C40004A
:1008000001FFFF8006110800010E4000210F40008B
:10081000790240009D0140004422400060224000D7
:1008200008110800A10D4000050C40000000B701B0
:100830000002B7015E0440201E4943F20610A8479B
:1008400038B3D047000624D423685E731A4B984708
:100850001A4B984780B17FB1194943F20610A84757
:10086000B8B1D047010614D4164B01221B689A7701
:10087000154A1A60104B98470B26013E16F0FF06EA
:1008800007D04FF4007141F21010A8470028F4D0AF
:1008900006E0236803269E720C4B9847304605E01D
:1008A000236800229A72094B9847012015B0BDE8D1
:1008B000F08F00BF0001B701ED0140000F0C4000B8
:1008C0000001B903580440200075190319024000C3
:1008D00008B5054B984728B9044B9847044B1B684B
:1008E000D87A08BD002008BD2D0240001902400042
:1008F0005804402008B5054B984728B9044B984741
:10090000044B1B68586808BD002008BD2D0240003C
:1009100019024000580440202DE9F7431F4B0F46B1
:1009200014469847002835D11D4DDFF88480DFF844
:100930009890D8F8003041F20D1019890904C84781
:10094000D0B1184EB047C20502D4013DF1D113E039
:10095000154B1648012C88BF1846154B1B68DB7ACF
:100960001B0700D47F0201234FF400723946114D5A
:1009700000932346A84718B90F4B9847052009E074
:10098000B0470E4B0340002BF6D10D4A1846148099
:100990000C4A148003B0BDE8F08300BF2D02400074
:1009A000410D0300C90C4000121110001111080084
:1009B00058044020FD0C400019024000000058E49B
:1009C0005C04402054044020A10C400010B5064BAC
:1009D0000C469847054B10B91880052010BD1988A2
:1009E0000020091B198010BD010E40005C0440204E
:1009F00010B5104B04469847D0B10F4B14B10022EC
:100A00001A8001E01B882BB90C4B1B88012B03D1EA
:100A10000B4B9847002010BD002143F20C10094CED
:100A2000A04701460028F3D143F20C10A047EFE79E
:100A3000052010BD210F40005C04402054044020DC
:100A400019024000A10C400037B5154B0D46144665
:100A5000984718BB134B4FF400721348012C88BF02
:100A60001846124B1B68DB7A1B074FF0010358BF77
:100A70006D020093234629460D4DA84718B90D4B2A
:100A8000984705200AE00C4B98470C4B0340002B7D
:100A9000F5D10B4A184614800A4A148003B030BDC1
:100AA0002D024000199110001891080058044020B0
:100AB000FD0C400019024000C90C4000000058E441
:100AC0005C0440205404402010B5064B0C46984767
:100AD000054B10B91880052010BD19880020091B8E
:100AE000198010BD650E40005C04402010B50E4B0F
:100AF00004469847B0B10D4B14B100221A8001E0B2
:100B00001B882BB90A4B0B4C1B88012B02D1A04729
:100B1000002010BD002143F20C10074B984700281D
:100B2000F5D1A047052010BDC90E40005C0440204F
:100B30005404402019024000A10C40004FF08043B3
:100B400070B580265D689C68D868D9695A6D1E604A
:100B50005D609C60D860D9615A6500221A650522E3
:100B60001A6070BD08B501F03F031843CB050AD5E4
:100B70000B0502D540F4845005E08B044CBF40F4D3
:100B8000865040F482504B044FF0804348BF40F4FD
:100B900000601A61586101F480501A6C30B112F48F
:100BA0001F0F06D00B4B9847002008BD12F41B0FF7
:100BB000F7E7D207F1D58B040AD500224FF0804128
:100BC000501C0B6CEED003F030030132202BF7D118
:100BD000012008BD3D0B400010B51220084CA04775
:100BE0003A20A0474FF0804372229A60DA611122C6
:100BF0005A654FF4E0625A6005221A6010BD00BFCA
:100C00003513400000280CBF04200020704701204D
:100C1000704700004FF080401BB1436D43F4807378
:100C200002E0436D23F4807343654900124B9942FF
:100C30000BD801331148B3FBF1F35943401A08B103
:100C4000013300E013B1013B00E000234FF080418D
:100C5000DBB2042A486820F0FF004860486843EA95
:100C600000034B6004D0082A0CBFC023002300E01F
:100C70008023CB60704700BFFF872A1100882A11AC
:100C800070474FF080435A6822F460525A60002245
:100C90001A614FF410625A611A6CD207FCD5704782
:100CA0004FF0804310B45A68002422F460525A6016
:100CB0000A461C6501469C612046024B5DF8044BC8
:100CC000184700BF650B40004FF08043186A70471B
:100CD00010B5031D4FF080441430226A0433110E06
:100CE00003F8052C03F8081C110C03F8071C110A63
:100CF00003F8061C8342F0D110BD000070B4044616
:100D00009DF80C004FF0804508B14FF480702865C5
:100D10004FF080406E6846F4C0566E609607456896
:100D200014BF45F4005525F4005514F4004F4560F8
:100D30004FF0804514BF4FF480304FF4A02014F4DE
:100D4000803F05D0C2F3080640F40010AE6112E007
:100D500043EA0246AE61A60302D540F420100AE041
:100D6000650302D540F4801005E0260303D4E502B4
:100D700048BF40F400200026054D2E60054D2A8016
:100D8000054A13800A46054B214670BC184700BF30
:100D9000840440208004402082044020650B4000F1
:100DA00010B54FF08044216C4FF080430F4A0A4049
:100DB0001AB10F4B9847002010BD8907F3D51A6B65
:100DC0000C4902600A6804320A600B4908880B4922
:100DD000098841438A4206D3196C044A0A40002A12
:100DE000E7D10A01F8D5012010BD00BF000060C0A6
:100DF0003D0B4000840440208004402082044020B9
:100E0000F0B589B007460C462022002168460E4BFB
:100E1000012598470D4E0E4B6A46356230461B88B9
:100E2000002102975C430B4B0393A30800930A4BEA
:100E300001930A4B98470A4BF56128461A681444F7
:100E40001C6009B0F0BD00BF7D204000008007405D
:100E50008004402001300400000200408D14400056
:100E600084044020F0B589B007460C4620220021BA
:100E700068460E4B012598470D4E0E4B6A4635626B
:100E800030461B8800215C430B4B0393A3088DE87D
:100E900088000A4B02930A4B98470A4BF561284693
:100EA0001A6814441C6009B0F0BD00BF7D204000EA
:100EB00000800740800440201150010000020040E3
:100EC0008D1440008404402038B50F4B4FF080440F
:100ED0000E4D1A880E4B1B8853430E4A1068216C26
:100EE0000D4A0A4032B10D4B98470122074B0020B2
:100EF0001A6238BD834202D9EA6DD20701D40A01D1
:100F0000EDD5012038BD00BF80044020008007409F
:100F10008204402084044020000060C03D0B40005B
:100F2000004B1847C90E4000064A80B2D2F814316F
:100F30001B0C1B04C2F81431D2F814310343C2F85D
:100F40001431704700800840024BD3F8140180B27E
:100F5000704700BF00800840F0B5114D8DB00646C7
:100F60000F4601AC0FCD0FC40FCD0FC495E807009D
:100F700084E80700002201A951F82230B7FBF3F002
:100F8000B0FBF6F0B0F5807F05D901320B2AF3D122
:100F90004FF6FF7001E040EA02200DB0F0BD00BF47
:100FA000A022400070B5064608680D4640B10C4BC3
:100FB000896898474FF6FF730446984201D10EE0C6
:100FC0000446686840B1064BA96898474FF6FF731E
:100FD000984204D044EA00443460002070BD70BDE3
:100FE000590F40004A680B6802F00F0270B58C8AF6
:100FF00022430C8922438C7A42EA44228C7D42EAC5
:101000000442CC7D42EA44420C7E42EA844200EB38
:101010004314C4F80022CA68C4F804220A69C4F858
:101020000C228A7D1AB1D1F81A20C4F818224FF088
:101030000112846C9A40D24304EA0205CC7F04FA80
:1010400003F68C7F9C4044EA06442C438464446C41
:10105000224091F8214004FA03F591F820409C4089
:1010600044EA054422434264012291F822409A4016
:1010700014B1046A144302E0046A24EA020404621C
:1010800091F82440022C05D1D0F8C0401443C0F898
:10109000C0400DE0D0F8C050D6433540C0F8C05035
:1010A00091F82440012C846E0CBF144334408466B4
:1010B00091F825401204022CD0F8C04003D12243FD
:1010C000C0F8C0200DE0D5432C40C0F8C04091F8D6
:1010D0002540012C02D1846E224301E0826E2A4019
:1010E0008266DB00FF22C56E9A4025EA020491F871
:1010F00023209A402243C26653B991F82C20012A3A
:101100008A6A22F07F4208BF42F08072C0F8A020B5
:1011100000EB4310D0F8003223F40023C0F8003273
:101120008B6BD0F8002203F400231343C0F8003285
:10113000002070BD0B69934207D30B68CA6000EBB7
:101140004310C0F80822002070474FF6FF70704728
:10115000012303FA01F141607047012303FA01F111
:10116000816070470123103203FA01F103FA02F2A1
:101170001143416170470000024A13680133136054
:10118000704700BF880440200022064B0649E0203B
:101190001A60064B5960064981F823009A600722BD
:1011A0001A60704788044020FF64040010E000E0EB
:1011B00000ED00E0014B1868704700BF8804402034
:1011C0008142A1EB000038BF00F1FF307047000002
:1011D00070B51048104C114DA0473E210020104B17
:1011E0009847A8470028FCD00E4B98470E4D0F4A51
:1011F0000F4B9A62A8470028FCD002200D4B98475D
:101200000D4B002098470D4B984723460C48BDE8EE
:101210007040184700A3E11101174000051340007A
:10122000B51240001513400025134000013F172060
:1012300000060E4045124000711240003516400075
:1012400000882A110238022896BF074B002233F883
:101250001020064B196B21F440710A431A639A6EF1
:101260001207FCD5704700BFCC22400000060E409C
:101270000F4B1A6B22F07002104341F20102186307
:10128000986E0B49000703D4013AF9D10120704749
:101290000A6B22F0030242F002020A6341F20102E9
:1012A000996E090702D4013AFAD1EFE7002070479E
:1012B00000060E4010B5104C30B1236A0F4A1A4098
:1012C0000F4B1343236210BD226A090222F45C1300
:1012D00089B223F0030343F45C1343F001030B438F
:1012E0002362A36E044ADB07FBD5136A43F09B73AA
:1012F00043F48033136210BD00060E40FCFFC8FEAD
:1013000002003701024B986E00F48030704700BF36
:1013100000060E404FF00052014B9A62704700BF2A
:1013200000060E40024B986E00F00200704700BFAE
:1013300000060E403F2817D81F280D4A4FF0010322
:1013400007D8916903FA00F030EA01030ED010616A
:101350000CE02038D2F8081103FA00F030EA01035B
:1013600004D0C2F8000101E001207047002070475E
:1013700000060E4059B1012903780ADD427802299E
:1013800042EA032305D0807840EA032070470846EC
:1013900070471846704700000E4B994218D8490014
:1013A0000023B2FBF1F2043AFF2A04D9072B02D042
:1013B00001335208F8E7D1B2120241F0E0511B04A8
:1013C00092B203F4E0230A431A43026100207047FB
:1013D00001207047801A06004FF0FF3208B5826284
:1013E000026A8022074B0260026B08220260202200
:1013F0000260042202600A6849689847431E584206
:10140000584108BD9913400073B5CE68044608469C
:10141000002E32D08D6800216160037C1B0403F430
:10142000FE0243681B0203F4407313436360E160F0
:10143000154B41689847E060236A0193019BD805EA
:1014400001D505201DE0019B590718D52A78013EDA
:1014500005F10103626301D01D46EDE7236A0193A4
:10146000019810F48070ECD1019B5A07F6D5022345
:101470002360236ADB07FCD503E0012001E02B4653
:10148000EAE702B070BD00BF7513400000EB8111A8
:10149000CB6D53680B6693684B66136823F07F43EC
:1014A0000B671369C3F30B034B675369CB679369EE
:1014B00023F07F43C1F88030D36923F07F43C1F824
:1014C0008430D3688B67704700F01F024009012306
:1014D00000F5001093400A0700F207704FEA402021
:1014E00001D5436600E00366CA0602D5C0F8943011
:1014F00001E0C0F890308A0601D5036500E043653D
:1015000011F0C00F01D0036200E043620A0602D569
:10151000C0F8843001E0C0F88030026F11F0010F94
:1015200014BF1A439A4389070267426F4CBF1343A3
:1015300022EA03034367704738B50221124D1C208D
:10154000124CA8474FF08053032119206360A8472D
:101550004FF0007302211E206360A8474FF08043C4
:1015600002211F206360A8474FF0004302211A2088
:101570006360A8474FF0806302211B206360A84787
:101580004FF00063636038BDC9144000000E0E4088
:10159000FEE7000008B51C4A1C4B9A4202D0043AF0
:1015A0001B4903E01B4B00211B4A06E08B42F9D28A
:1015B00052F8040F43F8040BF8E7934202D243F8C1
:1015C000041BFAE7154B164A23F07F039360EFF3F1
:1015D000108372B6BFF35F8F1248002212490A705F
:1015E000026842F470020260BFF34F8FBFF36F8F47
:1015F00023B901230B70BFF35F8F62B60B4B984783
:101600000B4B9847FEE700BF00234000000040203E
:101610003804402038044020148945200000400050
:1016200000ED00E088ED00E0000040202D204000AB
:10163000C91D40002C4A2D4B10B5116B01F0030160
:1016400001290CD002D302291AD03BE0284949696C
:101650000C064CBF4FF400414FF4FA4131E0116ADF
:10166000C8010BD423491960116A01F070011029D7
:1016700002D0202902D025E01F4922E01F4920E0A6
:10168000116AC9010BD41B491960116A01F070017C
:10169000102902D0202902D003E0174900E01749A1
:1016A0001960116B104801F0030102290AD1816A07
:1016B000806AC1F30A441968C0B204FB0111B1FB8E
:1016C000F0F11960126B02F07002702A04D11A68EE
:1016D0000321B2FBF1F205E0034A126BC2F30211DF
:1016E0001A68CA401A6010BD00060E40040040206F
:1016F00010180E4000093D0000127A00001BB700D0
:101700000E4B98420E4B02D84FF0806214E00D4A07
:10171000904201D80C4A0FE00C4A904201D80C4A82
:101720000AE00C4A904201D80B4A05E00B4A90426D
:1017300094BF4FF004220A4A1A607047FF2C31010F
:10174000000C0E40FF59620200010004FF86930363
:1017500000020004FFB3C40400030004FFE0F50529
:101760000005000400F01F024009012300F50010ED
:1017700093400A0700F207704FEA402001D5436604
:1017800000E00366CA0602D5C0F8943001E0C0F854
:1017900090308A0601D5036500E0436511F0C00F63
:1017A00001D0036200E043620A0602D5C0F884302B
:1017B00001E0C0F88030026F11F0010F14BF1A432E
:1017C0009A4389070267426F4CBF134322EA03031F
:1017D00043677047002304490448054A41F8230041
:1017E00001339342FAD170479804402044330011EA
:1017F0008060010008B50121084B112098474FF483
:101800000032074B5A604FF40073064A1360536C62
:1018100023F0570343F05203536408BD651740009B
:10182000000E0E4000060E402DE9F0410A23504EF6
:10183000504C33706F23DFF8448123700123B46070
:10184000F3604B4F4C4839464C4DC0470028F8D107
:101850008023BC603B7007232370D0236370022376
:10186000FB60434F44483946A8470028F9D18123FB
:101870002070BC603B70642363700223FB603C4FAC
:101880003D483946A8470028F9D182233B703C4B9C
:101890001B68013B072B0CD8DFE803F00B040B0699
:1018A0000B0B0B08012302E0022300E0032323704B
:1018B00000E0207002236070B460F3602C4E2E486C
:1018C0003146A8470028F9D183232070B4603370D3
:1018D000522363700223F360254E27483146A84700
:1018E0000028F9D184232070B46033706A236370B8
:1018F0000223F3601E4E20483146A8470028F9D144
:101900008523F022B460337002232370F360627089
:10191000174E19483146A8470028F9D18623B460EC
:10192000337001232370E02363700223F360104EB1
:1019300011483146A8470028F9D113232070B4601C
:1019400033700123F3600A4E0B483146A847002844
:10195000F9D10F23B4603370342323700123F36073
:1019600003490548A8470028FAD1BDE8F08100BF27
:10197000F08645200C89452000C001400914400034
:1019800008004020034AD2F8503143F02003C2F847
:1019900050317047000E0E4008B53A20054B98476D
:1019A000054B4FF080622021C3F8842183F83A135D
:1019B0005A6008BD3513400000E100E0154B0222DB
:1019C0001A625A6AD3F89C20134AC3F8A020134A1B
:1019D000C3F8A420124AC3F8B020124AC3F8B820B2
:1019E0000022C3F8AC20C3F8B420C3F8BC20C3F86D
:1019F000C020C3F8C420D3F8902042F00102C3F8FD
:101A00009020DA6842F00202DA60DA6942F00202FB
:101A1000DA61704700800740640F0E409804402050
:101A20008060010001300422034AD2F8583143F0AB
:101A30000F03C2F858317047000E0E40124B1A685F
:101A400042F480421A605A6942F480425A61D3F8E3
:101A5000942042F48042C3F894201A6C42F48042ED
:101A60001A64D3F8B02042F48042C3F8B020D3F80F
:101A7000C02042F48042C3F8C020D3F8D02042F402
:101A80008042C3F8D0207047000E0E40124B1A68F7
:101A900042F400121A605A6942F400125A61D3F8F3
:101AA000942042F40012C3F894201A6C42F40012FD
:101AB0001A64D3F8B02042F40012C3F8B020D3F86F
:101AC000C02042F40012C3F8C020D3F8D02042F462
:101AD0000012C3F8D0207047000E0E4000B5ADF5DF
:101AE000017D4FF4007200210E4B68469847012299
:101AF00040F2FF310C4B00209847012168460B4B08
:101B000098470B4B00209847049A0A4B1A60059A95
:101B1000094B1A60069A094B1A600DF5017D5DF8B4
:101B200004FB00BF7D20400019094000CD094000A2
:101B3000F109400008004020AC864520A8864520D9
:101B4000034AD2F8503143F00103C2F850317047D4
:101B5000000E0E40034AD2F8503123F00103C2F8C0
:101B600050317047000E0E4008B50F4B98470F4B91
:101B70000A2098474FF4806240210D4BC3F8802122
:101B800083F80A131A600B4B98470B4B98470B4B83
:101B900098470B4B98470B4B98470B4B18221A74DE
:101BA00001225A6008BD00BF551B4000351340009C
:101BB00000E100E0291A4000991940008519400011
:101BC0003D1A40008D1A4000F08645201A4B70B532
:101BD0001B685B042FD5194A194B10781146D8B1F0
:101BE0001878C8B10021174C11701970164B98471E
:101BF000164B174A1868C2F8FC012068C2F8F401B5
:101C0000144805682160C2F8F0511A6801321A6060
:101C1000114B1960016070BD1B7863B10123094A43
:101C20000B70002313600C4A13600C4B98470C4B4D
:101C3000BDE87040184770BDB08645209004402034
:101C40009104402098864520551B40009C864520E5
:101C500098844520A4864520A0864520BD194000D3
:101C6000411B4000084BDA6C084B1A601B689B0252
:101C700007D5074B1B78012B03D1064A13680133A4
:101C80001360054B184700BF000E0E40B08645207C
:101C90009004402098864520CD1B4000044BD3F88B
:101CA0009C30DB0702D50122024B1A60704700BF4F
:101CB00000800740A48645207FB51B4B1F20984716
:101CC0001A4B98471A4B40F480501A4D9847002100
:101CD000194B0126084600249847184B2846002136
:101CE0005E60174B9847174B01A928460193164B86
:101CF00002940393154B984715490B2328460C81F2
:101D00004B60FF238E720B6105230C60CB60114B7F
:101D100098472246214628460F4B98472146284699
:101D20000E4B984704B070BD35134000490F40007A
:101D3000290F40000000024065174000000E0E40D1
:101D40005B11400018E4030000449508A50F400013
:101D5000B4864520E50F4000651140005111400058
:101D600030B5104B85B0104D0193104B104C0293C1
:101D7000104B9847104B40F0300098470021252029
:101D8000A8472023002124206360A84710231420A3
:101D900063600A4B984701A9094B0A48984705B068
:101DA00030BD00BF0044950865174000A0860100C3
:101DB00000100E40490F4000290F4000351340002D
:101DC000D913400000C001402DE9F74F744B4FF488
:101DD00000425A600122734B1A70BFF35F8F62B6E4
:101DE000714B9847714B724F98470A20714EB84714
:101DF0000B20B8471020B8476F4B98476F4B984758
:101E00006F4B98476F4B98471020B84702236E4D91
:101E1000B9466E4F33616E4CC6F8A0307363A0476D
:101E20002860D5F80080A04701464046DFF89C8135
:101E3000B8476328F5D90B20664FC8474FF4805345
:101E40000B203B61C7F8A0307B63C84702233B618E
:101E5000C7F8A0307B635E4B98475B4B18602F68D8
:101E6000A04701463846C0476328F8D9594B02229B
:101E7000DFF8AC911A6301221A61C3F8A0205A63FB
:101E800004221A61C3F8A0205A63534B98470020DC
:101E9000C84707460028FAD1504B9847504B384660
:101EA0009847504B9847504B9847504B1A68FE2A1A
:101EB00000D91F601A6841F287374D494D4B4E4893
:101EC00098474E4B98474E4B9847A0472860D5F807
:101ED0000090A04701464846C047B842F7D948F6A7
:101EE000B2124FF48061DFF83C910020C847384BB4
:101EF0009847354B434A0421186001234FF4806A08
:101F000000271370334BDFF820B119634FF4805171
:101F1000196302233363CDF8009091463A4B1A6857
:101F2000974223D22A6801370192A047019A0146BD
:101F30001046C04740F2C121CBF80000334A344874
:101F40009047344A002090470122322089F800202F
:101F5000B7FBF0F200FB127040B90AF5094A48F6E7
:101F6000B212009B0AF1B20A514698472A680192C0
:101F7000A047019A01461046C047274A11684FF40E
:101F80007A724A43904206D302234FF4805273631D
:101F9000104B5A63FEE70021204A1160BEE700BFE4
:101FA00050180E4000004020D1114000391540006B
:101FB0003513400000140E40F51740008911400011
:101FC000B91C4000611D400008874520C111400038
:101FD000B511400000100E40A9024000D108400099
:101FE000F5084000D5174000DD1A4000AC864520BA
:101FF000B48645203511400000000240691B4000B6
:1020000029184000910440209C864520C90A4000C0
:1020100098044020ED0A4000A88645208C0440200A
:10202000C5024000490A40009086452070B50F4E19
:102030000F4D761BB61018BF002405D0013455F89B
:10204000043B9847A642F9D10A4E0B4D761B00F08F
:1020500045F9B61018BF002406D0013455F8043BEA
:102060009847A642F9D170BD70BD00BFE82240007C
:10207000E8224000F0224000E822400070B48407CB
:1020800046D0541E002A41D0CDB2034602E0621E63
:10209000E4B3144603F8015B9A07F8D1032C2ED958
:1020A000CDB245EA05250F2C45EA054519D903F1BE
:1020B00010022646103E0F2E42F8105C42F80C5CCF
:1020C00042F8085C42F8045C02F11002F2D8A4F174
:1020D000100222F00F0204F00F041032032C1344FC
:1020E0000DD91E462246043A032A46F8045BFAD864
:1020F000221F22F003020432134404F003042CB123
:10210000C9B21C4403F8011BA342FBD170BC704749
:1021100014460346C2E700BF024B13B1024800F069
:1021200005B8704700000000392140000023014637
:102130001A46184600F014B838B5074D074C2C1B4A
:10214000A41005D0013C55F8043D9847002CF9D166
:10215000BDE8384000F0CCB800234000FC2240002D
:102160002DE9F047254C2568D5F8484106468846B4
:1021700092469946C4B360681F2817DC431C76B1A9
:1021800004EB80050122C5F888A0D4F888118240AC
:102190001143022EC4F88811C5F808911ED00230F0
:1021A000636044F820800020BDE8F087144B03B33F
:1021B0004FF4C870AFF300800446D0B1D5F8483171
:1021C000002780E88800C5F8484138460123C4F854
:1021D0008871C4F88C71002EE1D0D1E7D4F88C114D
:1021E0000A43C4F88C21DAE705F5A674C5F848411E
:1021F000C1E74FF0FF30BDE8F08700BFD8224000B4
:1022000000000000000000000A0000000C000000B8
:102210000D0000000F000000140000001900000075
:102220001E00000023000000280000002D00000018
:1022300032000000370000003C00000046000000B3
:10224000500000000A00000064000000E8030000E5
:102250001027000000000000000000000000000047
:10226000000000000A0000000C0000000D0000004B
:102270000F000000140000001A0000001E00000003
:1022800023000000280000002D00000034000000A2
:10229000370000003C000000460000005000000035
:1022A000010000000200000004000000080000001F
:1022B000100000002000000040000000800000002E
:1022C0000001000000020000000400000001000303
:1022D000000200004300000010004020F8B500BFDD
:1022E000F8BC08BC9E4670471921400065014000BB
:1022F000F8B500BFF8BC08BC9E46704741014000DD
:102300000100000000093D00010000000000000085
:1023100000000000FC02402064034020CC03402069
:1023200000000000000000000000000000000000AD
:10233000000000000000000000000000000000009D
:1023400000000000D4224000000000000000000057
:10235000000000000000000000000000000000007D
:10236000000000000000000000000000000000006D
:10237000000000000000000000000000000000005D
:10238000000000000000000000000000000000004D
:10239000000000000000000000000000000000003D
:1023A000000000000000000000000000000000002D
:1023B000000000000000000001000000000000001C
:1023C0000E33CDAB34126DE6ECDE05000B000000E1
:1023D00000000000000000000000000000000000FD
:1023E00000000000000000000000000000000000ED
:1023F00000000000000000000000000000000000DD
:1024000000000000000000000000000000000000CC
:04000005004015950D
:00000001FF
